{
  "address": "0xf72930e8C77Fca60B3E8A16739bA3dc3E5Ca40B2",
  "abi": [
    {
      "inputs": [
        {
          "internalType": "address",
          "name": "_token",
          "type": "address"
        },
        {
          "internalType": "address",
          "name": "_masterChef",
          "type": "address"
        },
        {
          "internalType": "address",
          "name": "_depositor",
          "type": "address"
        },
        {
          "internalType": "address",
          "name": "_lp",
          "type": "address"
        },
        {
          "internalType": "uint256",
          "name": "_pid",
          "type": "uint256"
        }
      ],
      "stateMutability": "nonpayable",
      "type": "constructor"
    },
    {
      "inputs": [],
      "name": "balanceOf",
      "outputs": [
        {
          "internalType": "uint256",
          "name": "",
          "type": "uint256"
        }
      ],
      "stateMutability": "view",
      "type": "function"
    },
    {
      "inputs": [],
      "name": "balanceOfPool",
      "outputs": [
        {
          "internalType": "uint256",
          "name": "",
          "type": "uint256"
        }
      ],
      "stateMutability": "view",
      "type": "function"
    },
    {
      "inputs": [],
      "name": "balanceOfWant",
      "outputs": [
        {
          "internalType": "uint256",
          "name": "",
          "type": "uint256"
        }
      ],
      "stateMutability": "view",
      "type": "function"
    },
    {
      "inputs": [],
      "name": "deposit",
      "outputs": [],
      "stateMutability": "nonpayable",
      "type": "function"
    },
    {
      "inputs": [],
      "name": "depositor",
      "outputs": [
        {
          "internalType": "address",
          "name": "",
          "type": "address"
        }
      ],
      "stateMutability": "view",
      "type": "function"
    },
    {
      "inputs": [],
      "name": "getHarvestable",
      "outputs": [
        {
          "internalType": "uint256",
          "name": "",
          "type": "uint256"
        }
      ],
      "stateMutability": "view",
      "type": "function"
    },
    {
      "inputs": [],
      "name": "governance",
      "outputs": [
        {
          "internalType": "address",
          "name": "",
          "type": "address"
        }
      ],
      "stateMutability": "view",
      "type": "function"
    },
    {
      "inputs": [],
      "name": "harvest",
      "outputs": [],
      "stateMutability": "nonpayable",
      "type": "function"
    },
    {
      "inputs": [
        {
          "internalType": "address",
          "name": "",
          "type": "address"
        }
      ],
      "name": "harvesters",
      "outputs": [
        {
          "internalType": "bool",
          "name": "",
          "type": "bool"
        }
      ],
      "stateMutability": "view",
      "type": "function"
    },
    {
      "inputs": [],
      "name": "masterchef",
      "outputs": [
        {
          "internalType": "address",
          "name": "",
          "type": "address"
        }
      ],
      "stateMutability": "view",
      "type": "function"
    },
    {
      "inputs": [],
      "name": "poolId",
      "outputs": [
        {
          "internalType": "uint256",
          "name": "",
          "type": "uint256"
        }
      ],
      "stateMutability": "view",
      "type": "function"
    },
    {
      "inputs": [
        {
          "internalType": "address[]",
          "name": "_harvesters",
          "type": "address[]"
        }
      ],
      "name": "revokeHarvesters",
      "outputs": [],
      "stateMutability": "nonpayable",
      "type": "function"
    },
    {
      "inputs": [],
      "name": "rewardToken",
      "outputs": [
        {
          "internalType": "address",
          "name": "",
          "type": "address"
        }
      ],
      "stateMutability": "view",
      "type": "function"
    },
    {
      "inputs": [
        {
          "internalType": "address",
          "name": "_depositor",
          "type": "address"
        }
      ],
      "name": "setDepositor",
      "outputs": [],
      "stateMutability": "nonpayable",
      "type": "function"
    },
    {
      "inputs": [
        {
          "internalType": "address",
          "name": "_governance",
          "type": "address"
        }
      ],
      "name": "setGovernance",
      "outputs": [],
      "stateMutability": "nonpayable",
      "type": "function"
    },
    {
      "inputs": [],
      "name": "want",
      "outputs": [
        {
          "internalType": "address",
          "name": "",
          "type": "address"
        }
      ],
      "stateMutability": "view",
      "type": "function"
    },
    {
      "inputs": [
        {
          "internalType": "address[]",
          "name": "_harvesters",
          "type": "address[]"
        }
      ],
      "name": "whitelistHarvesters",
      "outputs": [],
      "stateMutability": "nonpayable",
      "type": "function"
    },
    {
      "inputs": [
        {
          "internalType": "uint256",
          "name": "_amount",
          "type": "uint256"
        }
      ],
      "name": "withdraw",
      "outputs": [
        {
          "internalType": "uint256",
          "name": "",
          "type": "uint256"
        }
      ],
      "stateMutability": "nonpayable",
      "type": "function"
    },
    {
      "inputs": [
        {
          "internalType": "contract IERC20",
          "name": "_asset",
          "type": "address"
        }
      ],
      "name": "withdraw",
      "outputs": [
        {
          "internalType": "uint256",
          "name": "balance",
          "type": "uint256"
        }
      ],
      "stateMutability": "nonpayable",
      "type": "function"
    },
    {
      "inputs": [],
      "name": "withdrawAll",
      "outputs": [
        {
          "internalType": "uint256",
          "name": "balance",
          "type": "uint256"
        }
      ],
      "stateMutability": "nonpayable",
      "type": "function"
    }
  ],
  "transactionHash": "0x391b5e4e1ff25033bf11475c6e4591d0f0c33718c78fcd4f97169cdaf22397ed",
  "args": [
    "0x4dcEd797Bc4462222c19A1c99020423cB0b14A29",
    "0x44aC02B81e32D8AEc7ff784CC278e09cE4133D41",
    "0x94A81d43299156c59C72b419a5063f9D557837b0",
    "0x9025351b5f937868d5a9c7aC87Be680A929598D1",
    0
  ],
  "solcInputHash": "2ee6087faf722921a373bd9eca6ff889",
  "bytecode": "0x608060405234801561001057600080fd5b5060405161161d38038061161d833981810160405260a081101561003357600080fd5b50805160208201516040830151606084015160809094015192939192909190848482848681816001600160a01b03821661006c57600080fd5b6001600160a01b03811661007f57600080fd5b600080546001600160a01b039384166001600160a01b0319918216179091556002805492841692821692909217909155600180548216331790556006949094556005805496821696851696909617909555505060048054929093169116179055505050505061152a806100f36000396000f3fe608060405234801561001057600080fd5b506004361061012c5760003560e01c8063853828b6116100ad578063c7c4ff4611610071578063c7c4ff461461032c578063d0e30db014610334578063f2c098b71461033c578063f7c618c114610362578063fb1db2781461036a5761012c565b8063853828b61461024c5780638797658314610254578063ab033ea91461028e578063b1f55bd4146102b4578063c1a3d44c146103245761012c565b80633e0dc34e116100f45780633e0dc34e146102065780634641257d1461020e57806351cff8d9146102165780635aa6e6751461023c578063722713f7146102445761012c565b80630547104d146101315780630e364fb61461014b57806311588086146101bd5780631f1fcd51146101c55780632e1a7d4d146101e9575b600080fd5b610139610372565b60408051918252519081900360200190f35b6101bb6004803603602081101561016157600080fd5b81019060208101813564010000000081111561017c57600080fd5b82018360208201111561018e57600080fd5b803590602001918460208302840111640100000000831117156101b057600080fd5b5090925090506104d8565b005b61013961059d565b6101cd610622565b604080516001600160a01b039092168252519081900360200190f35b610139600480360360208110156101ff57600080fd5b5035610631565b61013961074a565b6101bb610750565b6101396004803603602081101561022c57600080fd5b50356001600160a01b031661090a565b6101cd610a78565b610139610a87565b610139610aa7565b61027a6004803603602081101561026a57600080fd5b50356001600160a01b0316610b96565b604080519115158252519081900360200190f35b6101bb600480360360208110156102a457600080fd5b50356001600160a01b0316610bab565b6101bb600480360360208110156102ca57600080fd5b8101906020810181356401000000008111156102e557600080fd5b8201836020820111156102f757600080fd5b8035906020019184602083028401116401000000008311171561031957600080fd5b509092509050610c1a565b610139610cc0565b6101cd610d3d565b6101bb610d4c565b6101bb6004803603602081101561035257600080fd5b50356001600160a01b0316610e79565b6101cd610ee8565b6101cd610ef7565b600480546006546040805160016232bd9d60e01b0319815293840191909152306024840152516000928392839260609284926001600160a01b03169163ffcd4263916044808201928692909190829003018186803b1580156103d357600080fd5b505afa1580156103e7573d6000803e3d6000fd5b505050506040513d6000823e601f3d908101601f19168201604052608081101561041057600080fd5b8151602083015160408085018051915193959294830192918464010000000082111561043b57600080fd5b90830190602082018581111561045057600080fd5b825164010000000081118282018810171561046a57600080fd5b82525081516020918201929091019080838360005b8381101561049757818101518382015260200161047f565b50505050905090810190601f1680156104c45780820380516001836020036101000a031916815260200191505b506040525093985050505050505050505b90565b6001546001600160a01b031633148061050057503360009081526003602052604090205460ff165b610542576040805162461bcd60e51b815260206004820152600e60248201526d1b9bdd08185d5d1a1bdc9a5e995960921b604482015290519081900360640190fd5b60005b818110156105985760016003600085858581811061055f57fe5b602090810292909201356001600160a01b0316835250810191909152604001600020805460ff1916911515919091179055600101610545565b505050565b60048054600654604080516393f1a40b60e01b815293840191909152306024840152805160009384936001600160a01b0316926393f1a40b92604480840193829003018186803b1580156105f057600080fd5b505afa158015610604573d6000803e3d6000fd5b505050506040513d604081101561061a57600080fd5b505191505090565b6000546001600160a01b031681565b6002546000906001600160a01b03163314610680576040805162461bcd60e51b815260206004820152600a60248201526910b232b837b9b4ba37b960b11b604482015290519081900360640190fd5b60008054604080516370a0823160e01b815230600482015290516001600160a01b03909216916370a0823191602480820192602092909190829003018186803b1580156106cc57600080fd5b505afa1580156106e0573d6000803e3d6000fd5b505050506040513d60208110156106f657600080fd5b50519050828110156107235761071461070f8483610f06565b610f4f565b92506107208382610fc5565b92505b600254600054610740916001600160a01b0391821691168561101f565b829150505b919050565b60065481565b3360009081526003602052604090205460ff168061077857506001546001600160a01b031633145b8061078d57506002546001600160a01b031633145b61079657600080fd5b6004805460065460408051630441a3e760e41b81529384019190915260006024840181905290516001600160a01b039092169263441a3e70926044808301939282900301818387803b1580156107eb57600080fd5b505af11580156107ff573d6000803e3d6000fd5b5050600554604080516370a0823160e01b81523060048201529051600094506001600160a01b0390921692506370a08231916024808301926020929190829003018186803b15801561085057600080fd5b505afa158015610864573d6000803e3d6000fd5b505050506040513d602081101561087a57600080fd5b5051600254604080516361d027b360e01b81529051929350610907926001600160a01b03909216916361d027b391600480820192602092909190829003018186803b1580156108c857600080fd5b505afa1580156108dc573d6000803e3d6000fd5b505050506040513d60208110156108f257600080fd5b50516005546001600160a01b0316908361101f565b50565b3360009081526003602052604081205460ff168061093257506001546001600160a01b031633145b8061094757506002546001600160a01b031633145b61095057600080fd5b6001546001600160a01b0316331461099d576040805162461bcd60e51b815260206004820152600b60248201526a21676f7665726e616e636560a81b604482015290519081900360640190fd5b6000546001600160a01b03838116911614156109e9576040805162461bcd60e51b815260206004808301919091526024820152631dd85b9d60e21b604482015290519081900360640190fd5b604080516370a0823160e01b815230600482015290516001600160a01b038416916370a08231916024808301926020929190829003018186803b158015610a2f57600080fd5b505afa158015610a43573d6000803e3d6000fd5b505050506040513d6020811015610a5957600080fd5b5051600254909150610745906001600160a01b0384811691168361101f565b6001546001600160a01b031681565b6000610aa2610a9461059d565b610a9c610cc0565b90610fc5565b905090565b6001546000906001600160a01b03163314610af7576040805162461bcd60e51b815260206004820152600b60248201526a21676f7665726e616e636560a81b604482015290519081900360640190fd5b610aff611071565b600054604080516370a0823160e01b815230600482015290516001600160a01b03909216916370a0823191602480820192602092909190829003018186803b158015610b4a57600080fd5b505afa158015610b5e573d6000803e3d6000fd5b505050506040513d6020811015610b7457600080fd5b50516002546000549192506104d5916001600160a01b0390811691168361101f565b60036020526000908152604090205460ff1681565b6001546001600160a01b03163314610bf8576040805162461bcd60e51b815260206004820152600b60248201526a21676f7665726e616e636560a81b604482015290519081900360640190fd5b600180546001600160a01b0319166001600160a01b0392909216919091179055565b6001546001600160a01b03163314610c6a576040805162461bcd60e51b815260206004820152600e60248201526d1b9bdd08185d5d1a1bdc9a5e995960921b604482015290519081900360640190fd5b60005b8181101561059857600060036000858585818110610c8757fe5b602090810292909201356001600160a01b0316835250810191909152604001600020805460ff1916911515919091179055600101610c6d565b60008054604080516370a0823160e01b815230600482015290516001600160a01b03909216916370a0823191602480820192602092909190829003018186803b158015610d0c57600080fd5b505afa158015610d20573d6000803e3d6000fd5b505050506040513d6020811015610d3657600080fd5b5051905090565b6002546001600160a01b031681565b60008054604080516370a0823160e01b815230600482015290516001600160a01b03909216916370a0823191602480820192602092909190829003018186803b158015610d9857600080fd5b505afa158015610dac573d6000803e3d6000fd5b505050506040513d6020811015610dc257600080fd5b5051905080156109075760045460008054610deb926001600160a01b039182169291169061107c565b600454600054610e08916001600160a01b0391821691168361107c565b6004805460065460408051631c57762b60e31b81529384019190915260248301849052516001600160a01b039091169163e2bbb15891604480830192600092919082900301818387803b158015610e5e57600080fd5b505af1158015610e72573d6000803e3d6000fd5b5050505050565b6001546001600160a01b03163314610ec6576040805162461bcd60e51b815260206004820152600b60248201526a21676f7665726e616e636560a81b604482015290519081900360640190fd5b600280546001600160a01b0319166001600160a01b0392909216919091179055565b6005546001600160a01b031681565b6004546001600160a01b031681565b6000610f4883836040518060400160405280601e81526020017f536166654d6174683a207375627472616374696f6e206f766572666c6f77000081525061118f565b9392505050565b6004805460065460408051630441a3e760e41b81529384019190915260248301849052516000926001600160a01b039092169163441a3e70916044808301928692919082900301818387803b158015610fa757600080fd5b505af1158015610fbb573d6000803e3d6000fd5b5093949350505050565b600082820183811015610f48576040805162461bcd60e51b815260206004820152601b60248201527f536166654d6174683a206164646974696f6e206f766572666c6f770000000000604482015290519081900360640190fd5b604080516001600160a01b038416602482015260448082018490528251808303909101815260649091019091526020810180516001600160e01b031663a9059cbb60e01b179052610598908490611226565b61090761070f61059d565b801580611102575060408051636eb1769f60e11b81523060048201526001600160a01b03848116602483015291519185169163dd62ed3e91604480820192602092909190829003018186803b1580156110d457600080fd5b505afa1580156110e8573d6000803e3d6000fd5b505050506040513d60208110156110fe57600080fd5b5051155b61113d5760405162461bcd60e51b81526004018080602001828103825260368152602001806114bf6036913960400191505060405180910390fd5b604080516001600160a01b038416602482015260448082018490528251808303909101815260649091019091526020810180516001600160e01b031663095ea7b360e01b179052610598908490611226565b6000818484111561121e5760405162461bcd60e51b81526004018080602001828103825283818151815260200191508051906020019080838360005b838110156111e35781810151838201526020016111cb565b50505050905090810190601f1680156112105780820380516001836020036101000a031916815260200191505b509250505060405180910390fd5b505050900390565b606061127b826040518060400160405280602081526020017f5361666545524332303a206c6f772d6c6576656c2063616c6c206661696c6564815250856001600160a01b03166112d79092919063ffffffff16565b8051909150156105985780806020019051602081101561129a57600080fd5b50516105985760405162461bcd60e51b815260040180806020018281038252602a815260200180611495602a913960400191505060405180910390fd5b60606112e684846000856112ee565b949350505050565b60606112f98561145b565b61134a576040805162461bcd60e51b815260206004820152601d60248201527f416464726573733a2063616c6c20746f206e6f6e2d636f6e7472616374000000604482015290519081900360640190fd5b60006060866001600160a01b031685876040518082805190602001908083835b602083106113895780518252601f19909201916020918201910161136a565b6001836020036101000a03801982511681845116808217855250505050505090500191505060006040518083038185875af1925050503d80600081146113eb576040519150601f19603f3d011682016040523d82523d6000602084013e6113f0565b606091505b509150915081156114045791506112e69050565b8051156114145780518082602001fd5b60405162461bcd60e51b81526020600482018181528651602484015286518793919283926044019190850190808383600083156111e35781810151838201526020016111cb565b6000813f7fc5d2460186f7233c927e7db2dcc703c0e500b653ca82273b7bfad8045d85a4708181148015906112e657505015159291505056fe5361666545524332303a204552433230206f7065726174696f6e20646964206e6f7420737563636565645361666545524332303a20617070726f76652066726f6d206e6f6e2d7a65726f20746f206e6f6e2d7a65726f20616c6c6f77616e6365a264697066735822122031f3e516b62839545a4f6ebee7cdad00dd1967152b7916765f0173fb884cc32064736f6c634300060c0033",
  "devdoc": {
    "kind": "dev",
    "methods": {},
    "version": 1
  },
  "userdoc": {
    "kind": "user",
    "methods": {},
    "version": 1
  },
  "storageLayout": {
    "storage": [
      {
        "astId": 11087,
        "contract": "contracts/strategies/ExampleStrategy.sol:ExampleStrategy",
        "label": "want",
        "offset": 0,
        "slot": "0",
        "type": "t_address"
      },
      {
        "astId": 11089,
        "contract": "contracts/strategies/ExampleStrategy.sol:ExampleStrategy",
        "label": "governance",
        "offset": 0,
        "slot": "1",
        "type": "t_address"
      },
      {
        "astId": 11091,
        "contract": "contracts/strategies/ExampleStrategy.sol:ExampleStrategy",
        "label": "depositor",
        "offset": 0,
        "slot": "2",
        "type": "t_address"
      },
      {
        "astId": 11095,
        "contract": "contracts/strategies/ExampleStrategy.sol:ExampleStrategy",
        "label": "harvesters",
        "offset": 0,
        "slot": "3",
        "type": "t_mapping(t_address,t_bool)"
      },
      {
        "astId": 11475,
        "contract": "contracts/strategies/ExampleStrategy.sol:ExampleStrategy",
        "label": "masterchef",
        "offset": 0,
        "slot": "4",
        "type": "t_address"
      },
      {
        "astId": 11477,
        "contract": "contracts/strategies/ExampleStrategy.sol:ExampleStrategy",
        "label": "rewardToken",
        "offset": 0,
        "slot": "5",
        "type": "t_address"
      },
      {
        "astId": 11479,
        "contract": "contracts/strategies/ExampleStrategy.sol:ExampleStrategy",
        "label": "poolId",
        "offset": 0,
        "slot": "6",
        "type": "t_uint256"
      }
    ],
    "types": {
      "t_address": {
        "encoding": "inplace",
        "label": "address",
        "numberOfBytes": "20"
      },
      "t_bool": {
        "encoding": "inplace",
        "label": "bool",
        "numberOfBytes": "1"
      },
      "t_mapping(t_address,t_bool)": {
        "encoding": "mapping",
        "key": "t_address",
        "label": "mapping(address => bool)",
        "numberOfBytes": "32",
        "value": "t_bool"
      },
      "t_uint256": {
        "encoding": "inplace",
        "label": "uint256",
        "numberOfBytes": "32"
      }
    }
  }
}