{
  "address": "0x94A81d43299156c59C72b419a5063f9D557837b0",
  "abi": [
    {
      "inputs": [],
      "stateMutability": "nonpayable",
      "type": "constructor"
    },
    {
      "anonymous": false,
      "inputs": [
        {
          "indexed": true,
          "internalType": "address",
          "name": "user",
          "type": "address"
        },
        {
          "indexed": true,
          "internalType": "uint256",
          "name": "pid",
          "type": "uint256"
        },
        {
          "indexed": false,
          "internalType": "uint256",
          "name": "amount",
          "type": "uint256"
        },
        {
          "indexed": true,
          "internalType": "address",
          "name": "to",
          "type": "address"
        }
      ],
      "name": "Deposit",
      "type": "event"
    },
    {
      "anonymous": false,
      "inputs": [
        {
          "indexed": false,
          "internalType": "uint256",
          "name": "amount",
          "type": "uint256"
        },
        {
          "indexed": false,
          "internalType": "address",
          "name": "token",
          "type": "address"
        }
      ],
      "name": "DepositToLiquidDepositor",
      "type": "event"
    },
    {
      "anonymous": false,
      "inputs": [
        {
          "indexed": true,
          "internalType": "address",
          "name": "user",
          "type": "address"
        },
        {
          "indexed": true,
          "internalType": "uint256",
          "name": "pid",
          "type": "uint256"
        },
        {
          "indexed": false,
          "internalType": "uint256",
          "name": "amount",
          "type": "uint256"
        },
        {
          "indexed": true,
          "internalType": "address",
          "name": "to",
          "type": "address"
        }
      ],
      "name": "EmergencyWithdraw",
      "type": "event"
    },
    {
      "anonymous": false,
      "inputs": [
        {
          "indexed": true,
          "internalType": "address",
          "name": "user",
          "type": "address"
        },
        {
          "indexed": true,
          "internalType": "uint256",
          "name": "pid",
          "type": "uint256"
        },
        {
          "indexed": false,
          "internalType": "uint256",
          "name": "amount",
          "type": "uint256"
        }
      ],
      "name": "Harvest",
      "type": "event"
    },
    {
      "anonymous": false,
      "inputs": [],
      "name": "LogInit",
      "type": "event"
    },
    {
      "anonymous": false,
      "inputs": [
        {
          "indexed": true,
          "internalType": "uint256",
          "name": "pid",
          "type": "uint256"
        },
        {
          "indexed": false,
          "internalType": "uint256",
          "name": "allocPoint",
          "type": "uint256"
        },
        {
          "indexed": true,
          "internalType": "contract IERC20",
          "name": "lpToken",
          "type": "address"
        },
        {
          "indexed": true,
          "internalType": "contract IRewarder",
          "name": "rewarder",
          "type": "address"
        }
      ],
      "name": "LogPoolAddition",
      "type": "event"
    },
    {
      "anonymous": false,
      "inputs": [
        {
          "indexed": true,
          "internalType": "uint256",
          "name": "pid",
          "type": "uint256"
        },
        {
          "indexed": false,
          "internalType": "uint256",
          "name": "allocPoint",
          "type": "uint256"
        },
        {
          "indexed": true,
          "internalType": "contract IRewarder",
          "name": "rewarder",
          "type": "address"
        },
        {
          "indexed": false,
          "internalType": "bool",
          "name": "overwrite",
          "type": "bool"
        }
      ],
      "name": "LogSetPool",
      "type": "event"
    },
    {
      "anonymous": false,
      "inputs": [
        {
          "indexed": true,
          "internalType": "uint256",
          "name": "pid",
          "type": "uint256"
        },
        {
          "indexed": false,
          "internalType": "uint256",
          "name": "lastRewardBlock",
          "type": "uint256"
        },
        {
          "indexed": false,
          "internalType": "uint256",
          "name": "lpSupply",
          "type": "uint256"
        },
        {
          "indexed": false,
          "internalType": "uint256",
          "name": "accPartsPerShare",
          "type": "uint256"
        }
      ],
      "name": "LogUpdatePool",
      "type": "event"
    },
    {
      "anonymous": false,
      "inputs": [
        {
          "indexed": true,
          "internalType": "address",
          "name": "previousOwner",
          "type": "address"
        },
        {
          "indexed": true,
          "internalType": "address",
          "name": "newOwner",
          "type": "address"
        }
      ],
      "name": "OwnershipTransferred",
      "type": "event"
    },
    {
      "anonymous": false,
      "inputs": [
        {
          "indexed": true,
          "internalType": "address",
          "name": "user",
          "type": "address"
        },
        {
          "indexed": true,
          "internalType": "uint256",
          "name": "pid",
          "type": "uint256"
        },
        {
          "indexed": false,
          "internalType": "uint256",
          "name": "amount",
          "type": "uint256"
        },
        {
          "indexed": true,
          "internalType": "address",
          "name": "to",
          "type": "address"
        }
      ],
      "name": "Withdraw",
      "type": "event"
    },
    {
      "anonymous": false,
      "inputs": [
        {
          "indexed": false,
          "internalType": "uint256",
          "name": "amount",
          "type": "uint256"
        },
        {
          "indexed": false,
          "internalType": "address",
          "name": "token",
          "type": "address"
        }
      ],
      "name": "WithdrawFromLiquidDepositor",
      "type": "event"
    },
    {
      "inputs": [],
      "name": "ACC_PARTS_PRECISION",
      "outputs": [
        {
          "internalType": "uint256",
          "name": "",
          "type": "uint256"
        }
      ],
      "stateMutability": "view",
      "type": "function"
    },
    {
      "inputs": [],
      "name": "MASTERCHEF_PARTS_PER_BLOCK",
      "outputs": [
        {
          "internalType": "uint256",
          "name": "",
          "type": "uint256"
        }
      ],
      "stateMutability": "view",
      "type": "function"
    },
    {
      "inputs": [],
      "name": "MASTER_CHEF",
      "outputs": [
        {
          "internalType": "contract IMasterChef",
          "name": "",
          "type": "address"
        }
      ],
      "stateMutability": "view",
      "type": "function"
    },
    {
      "inputs": [],
      "name": "MASTER_PID",
      "outputs": [
        {
          "internalType": "uint256",
          "name": "",
          "type": "uint256"
        }
      ],
      "stateMutability": "view",
      "type": "function"
    },
    {
      "inputs": [],
      "name": "PARTS",
      "outputs": [
        {
          "internalType": "contract IERC20",
          "name": "",
          "type": "address"
        }
      ],
      "stateMutability": "view",
      "type": "function"
    },
    {
      "inputs": [
        {
          "internalType": "uint256",
          "name": "allocPoint",
          "type": "uint256"
        },
        {
          "internalType": "contract IERC20",
          "name": "_lpToken",
          "type": "address"
        },
        {
          "internalType": "contract IRewarder",
          "name": "_rewarder",
          "type": "address"
        },
        {
          "internalType": "contract IStrategy",
          "name": "_strategy",
          "type": "address"
        },
        {
          "internalType": "uint256",
          "name": "_depositFee",
          "type": "uint256"
        }
      ],
      "name": "add",
      "outputs": [],
      "stateMutability": "nonpayable",
      "type": "function"
    },
    {
      "inputs": [
        {
          "internalType": "uint256",
          "name": "pid",
          "type": "uint256"
        },
        {
          "internalType": "uint256",
          "name": "amount",
          "type": "uint256"
        },
        {
          "internalType": "address",
          "name": "to",
          "type": "address"
        }
      ],
      "name": "deposit",
      "outputs": [],
      "stateMutability": "nonpayable",
      "type": "function"
    },
    {
      "inputs": [
        {
          "internalType": "uint256",
          "name": "pid",
          "type": "uint256"
        },
        {
          "internalType": "address",
          "name": "to",
          "type": "address"
        }
      ],
      "name": "emergencyWithdraw",
      "outputs": [],
      "stateMutability": "nonpayable",
      "type": "function"
    },
    {
      "inputs": [],
      "name": "feeAddress",
      "outputs": [
        {
          "internalType": "address",
          "name": "",
          "type": "address"
        }
      ],
      "stateMutability": "view",
      "type": "function"
    },
    {
      "inputs": [
        {
          "internalType": "uint256",
          "name": "",
          "type": "uint256"
        }
      ],
      "name": "feeAddresses",
      "outputs": [
        {
          "internalType": "address",
          "name": "",
          "type": "address"
        }
      ],
      "stateMutability": "view",
      "type": "function"
    },
    {
      "inputs": [
        {
          "internalType": "uint256",
          "name": "pid",
          "type": "uint256"
        },
        {
          "internalType": "address",
          "name": "to",
          "type": "address"
        }
      ],
      "name": "harvest",
      "outputs": [],
      "stateMutability": "nonpayable",
      "type": "function"
    },
    {
      "inputs": [],
      "name": "harvestFromMasterChef",
      "outputs": [],
      "stateMutability": "nonpayable",
      "type": "function"
    },
    {
      "inputs": [
        {
          "internalType": "contract IERC20",
          "name": "dummyToken",
          "type": "address"
        }
      ],
      "name": "init",
      "outputs": [],
      "stateMutability": "nonpayable",
      "type": "function"
    },
    {
      "inputs": [
        {
          "internalType": "contract IERC20",
          "name": "_parts",
          "type": "address"
        },
        {
          "internalType": "address",
          "name": "_feeAddress",
          "type": "address"
        },
        {
          "internalType": "address",
          "name": "_treasury",
          "type": "address"
        }
      ],
      "name": "initialize",
      "outputs": [],
      "stateMutability": "nonpayable",
      "type": "function"
    },
    {
      "inputs": [
        {
          "internalType": "uint256",
          "name": "",
          "type": "uint256"
        }
      ],
      "name": "lpToken",
      "outputs": [
        {
          "internalType": "contract IERC20",
          "name": "",
          "type": "address"
        }
      ],
      "stateMutability": "view",
      "type": "function"
    },
    {
      "inputs": [],
      "name": "massHarvestFromStrategies",
      "outputs": [],
      "stateMutability": "nonpayable",
      "type": "function"
    },
    {
      "inputs": [
        {
          "internalType": "uint256[]",
          "name": "pids",
          "type": "uint256[]"
        }
      ],
      "name": "massUpdatePools",
      "outputs": [],
      "stateMutability": "nonpayable",
      "type": "function"
    },
    {
      "inputs": [],
      "name": "owner",
      "outputs": [
        {
          "internalType": "address",
          "name": "",
          "type": "address"
        }
      ],
      "stateMutability": "view",
      "type": "function"
    },
    {
      "inputs": [],
      "name": "partsPerBlock",
      "outputs": [
        {
          "internalType": "uint256",
          "name": "amount",
          "type": "uint256"
        }
      ],
      "stateMutability": "view",
      "type": "function"
    },
    {
      "inputs": [
        {
          "internalType": "uint256",
          "name": "_pid",
          "type": "uint256"
        },
        {
          "internalType": "address",
          "name": "_user",
          "type": "address"
        }
      ],
      "name": "pendingParts",
      "outputs": [
        {
          "internalType": "uint256",
          "name": "pending",
          "type": "uint256"
        }
      ],
      "stateMutability": "view",
      "type": "function"
    },
    {
      "inputs": [
        {
          "internalType": "uint256",
          "name": "",
          "type": "uint256"
        }
      ],
      "name": "poolInfo",
      "outputs": [
        {
          "internalType": "uint256",
          "name": "accPartsPerShare",
          "type": "uint256"
        },
        {
          "internalType": "uint256",
          "name": "lastRewardBlock",
          "type": "uint256"
        },
        {
          "internalType": "uint256",
          "name": "allocPoint",
          "type": "uint256"
        },
        {
          "internalType": "uint256",
          "name": "depositFee",
          "type": "uint256"
        }
      ],
      "stateMutability": "view",
      "type": "function"
    },
    {
      "inputs": [],
      "name": "poolLength",
      "outputs": [
        {
          "internalType": "uint256",
          "name": "pools",
          "type": "uint256"
        }
      ],
      "stateMutability": "view",
      "type": "function"
    },
    {
      "inputs": [],
      "name": "renounceOwnership",
      "outputs": [],
      "stateMutability": "nonpayable",
      "type": "function"
    },
    {
      "inputs": [
        {
          "internalType": "uint256",
          "name": "",
          "type": "uint256"
        }
      ],
      "name": "rewarder",
      "outputs": [
        {
          "internalType": "contract IRewarder",
          "name": "",
          "type": "address"
        }
      ],
      "stateMutability": "view",
      "type": "function"
    },
    {
      "inputs": [
        {
          "internalType": "uint256",
          "name": "_pid",
          "type": "uint256"
        },
        {
          "internalType": "uint256",
          "name": "_allocPoint",
          "type": "uint256"
        },
        {
          "internalType": "contract IRewarder",
          "name": "_rewarder",
          "type": "address"
        },
        {
          "internalType": "contract IStrategy",
          "name": "_strategy",
          "type": "address"
        },
        {
          "internalType": "uint256",
          "name": "_depositFee",
          "type": "uint256"
        },
        {
          "internalType": "bool",
          "name": "overwrite",
          "type": "bool"
        }
      ],
      "name": "set",
      "outputs": [],
      "stateMutability": "nonpayable",
      "type": "function"
    },
    {
      "inputs": [
        {
          "internalType": "address",
          "name": "_feeAddress",
          "type": "address"
        }
      ],
      "name": "setFeeAddress",
      "outputs": [],
      "stateMutability": "nonpayable",
      "type": "function"
    },
    {
      "inputs": [
        {
          "internalType": "uint256",
          "name": "pid",
          "type": "uint256"
        },
        {
          "internalType": "address",
          "name": "_feeAddress",
          "type": "address"
        }
      ],
      "name": "setFeeAddresses",
      "outputs": [],
      "stateMutability": "nonpayable",
      "type": "function"
    },
    {
      "inputs": [
        {
          "internalType": "contract IMasterChef",
          "name": "masterChef",
          "type": "address"
        },
        {
          "internalType": "uint256",
          "name": "masterPid",
          "type": "uint256"
        },
        {
          "internalType": "uint256",
          "name": "masterChefPartsPerBlock",
          "type": "uint256"
        }
      ],
      "name": "setMasterChef",
      "outputs": [],
      "stateMutability": "nonpayable",
      "type": "function"
    },
    {
      "inputs": [
        {
          "internalType": "address",
          "name": "_treasuryAddress",
          "type": "address"
        }
      ],
      "name": "setTreasuryAddress",
      "outputs": [],
      "stateMutability": "nonpayable",
      "type": "function"
    },
    {
      "inputs": [
        {
          "internalType": "uint256",
          "name": "",
          "type": "uint256"
        }
      ],
      "name": "strategies",
      "outputs": [
        {
          "internalType": "contract IStrategy",
          "name": "",
          "type": "address"
        }
      ],
      "stateMutability": "view",
      "type": "function"
    },
    {
      "inputs": [],
      "name": "totalAllocPoint",
      "outputs": [
        {
          "internalType": "uint256",
          "name": "",
          "type": "uint256"
        }
      ],
      "stateMutability": "view",
      "type": "function"
    },
    {
      "inputs": [
        {
          "internalType": "address",
          "name": "newOwner",
          "type": "address"
        }
      ],
      "name": "transferOwnership",
      "outputs": [],
      "stateMutability": "nonpayable",
      "type": "function"
    },
    {
      "inputs": [],
      "name": "treasury",
      "outputs": [
        {
          "internalType": "address",
          "name": "",
          "type": "address"
        }
      ],
      "stateMutability": "view",
      "type": "function"
    },
    {
      "inputs": [
        {
          "internalType": "uint256",
          "name": "pid",
          "type": "uint256"
        }
      ],
      "name": "updatePool",
      "outputs": [
        {
          "components": [
            {
              "internalType": "uint256",
              "name": "accPartsPerShare",
              "type": "uint256"
            },
            {
              "internalType": "uint256",
              "name": "lastRewardBlock",
              "type": "uint256"
            },
            {
              "internalType": "uint256",
              "name": "allocPoint",
              "type": "uint256"
            },
            {
              "internalType": "uint256",
              "name": "depositFee",
              "type": "uint256"
            }
          ],
          "internalType": "struct MasterChefV2.PoolInfo",
          "name": "pool",
          "type": "tuple"
        }
      ],
      "stateMutability": "nonpayable",
      "type": "function"
    },
    {
      "inputs": [
        {
          "internalType": "uint256",
          "name": "",
          "type": "uint256"
        },
        {
          "internalType": "address",
          "name": "",
          "type": "address"
        }
      ],
      "name": "userInfo",
      "outputs": [
        {
          "internalType": "uint256",
          "name": "amount",
          "type": "uint256"
        },
        {
          "internalType": "int256",
          "name": "rewardDebt",
          "type": "int256"
        }
      ],
      "stateMutability": "view",
      "type": "function"
    },
    {
      "inputs": [
        {
          "internalType": "uint256",
          "name": "pid",
          "type": "uint256"
        },
        {
          "internalType": "uint256",
          "name": "amount",
          "type": "uint256"
        },
        {
          "internalType": "address",
          "name": "to",
          "type": "address"
        }
      ],
      "name": "withdraw",
      "outputs": [],
      "stateMutability": "nonpayable",
      "type": "function"
    },
    {
      "inputs": [
        {
          "internalType": "uint256",
          "name": "pid",
          "type": "uint256"
        },
        {
          "internalType": "uint256",
          "name": "amount",
          "type": "uint256"
        },
        {
          "internalType": "address",
          "name": "to",
          "type": "address"
        }
      ],
      "name": "withdrawAndHarvest",
      "outputs": [],
      "stateMutability": "nonpayable",
      "type": "function"
    }
  ],
  "transactionHash": "0xf737c8c6fcf2390f4c44c5ddba9010b110ab7c91c1da5b61e84e6776d52294b5",
  "args": [],
  "solcInputHash": "2ee6087faf722921a373bd9eca6ff889",
  "bytecode": "0x608060405234801561001057600080fd5b506137ec806100206000396000f3fe608060405234801561001057600080fd5b50600436106102275760003560e01c80636924736d116101305780639a8f95e1116100b8578063d1abb9071161007c578063d1abb9071461044d578063d574ea3d14610460578063dc41ebc814610473578063edd8b17014610486578063f2fde38b1461048e57610227565b80639a8f95e1146104045780639ef1565a1461040c578063b3d0ae9414610414578063c0c53b8b14610427578063c346253d1461043a57610227565b80638705fcd4116100ff5780638705fcd4146103ad57806387607db9146103c05780638da5cb5b146103c85780638dbdbe6d146103d057806393f1a40b146103e357610227565b80636924736d146103775780636a7acbd01461038a578063715018a61461039257806378ed5d1f1461039a57610227565b80632f940c70116101b357806351eb05a61161018257806351eb05a61461032157806357a5b58c1461034157806361621aaa1461035457806361d027b31461035c5780636605bfda1461036457610227565b80632f940c70146102f6578063381996971461030957806341275358146103115780634f70b15a1461031957610227565b80631526fe27116101fa5780631526fe271461029257806317caf6f1146102b557806318fccc76146102bd57806319ab453c146102d05780631d198c66146102e357610227565b8063020a51851461022c578063081e3eda146102415780630ad58d2f1461025f5780631297ac4f14610272575b600080fd5b61023f61023a3660046131b8565b6104a1565b005b6102496106d8565b60405161025691906136e0565b60405180910390f35b61023f61026d366004613212565b6106de565b610285610280366004613159565b610832565b60405161025691906132c1565b6102a56102a0366004613159565b61084d565b604051610256949392919061374c565b610249610884565b61023f6102cb366004613189565b61088a565b61023f6102de366004612fae565b610a04565b6102496102f1366004613189565b610bd0565b61023f610304366004613189565b610f0c565b610249611028565b61028561102e565b61023f61103d565b61033461032f366004613159565b6110a5565b60405161025691906136b5565b61023f61034f366004612fe6565b611387565b6102496113b7565b6102856113bd565b61023f610372366004612fae565b6113cc565b61023f61038536600461323f565b61143b565b61024961168e565b61023f611694565b6102856103a8366004613159565b61171d565b61023f6103bb366004612fae565b611744565b6102496117b3565b6102856118ce565b61023f6103de366004613212565b6118dd565b6103f66103f1366004613189565b611c1f565b604051610256929190613728565b610285611c43565b61023f611c52565b61023f610422366004613189565b611d0c565b61023f610435366004613071565b611d87565b610285610448366004613159565b611e5d565b61023f61045b366004613212565b611e6a565b61028561046e366004613159565b61205b565b61023f6104813660046130bb565b612068565b6102856120d0565b61023f61049c366004612fae565b6120df565b6104a96121a0565b6001600160a01b03166104ba6118ce565b6001600160a01b0316146104e95760405162461bcd60e51b81526004016104e0906135ad565b60405180910390fd5b606d5443906104f890876121a4565b606d5560698054600180820183557f7fb4302e8e91f9110a6554c2c0a24601252c2a42c2220ca988efcfe39991430890910180546001600160a01b03199081166001600160a01b038a8116918217909355606a80548086019091557f116fea137db6e131133e7f2bab296045d8f41cc5607279db17b218cab0929a5101805483168a8516908117909155606b80548087019091557fbd43cb8ece8cd1863bcd6082d65c5b0d25665b1ce17980f0da43c0ed545f98b401805490931693891693909317909155604080516080810182526000808252602082018881529282018d8152606083018a815260688054808a018255935292517fa2153420d844928b4421650203c77babc8b33d7f2e7b450e2966db0c220977536004939093029283015592517fa2153420d844928b4421650203c77babc8b33d7f2e7b450e2966db0c2209775482015591517fa2153420d844928b4421650203c77babc8b33d7f2e7b450e2966db0c22097755830155517fa2153420d844928b4421650203c77babc8b33d7f2e7b450e2966db0c2209775690910155925490929161069991906121d2565b7f81ee0f8c5c46e2cb41984886f77a84181724abb86c32a5f6de539b07509d45e5896040516106c891906136e0565b60405180910390a4505050505050565b60685490565b6106e6612f86565b6106ef846110a5565b6000858152606c602090815260408083203384529091529020606f54825192935090916107369190610722908790612214565b8161072957fe5b600184015491900461224e565b6001820155805461074790856121d2565b8155606a8054600091908790811061075b57fe5b6000918252602090912001546001600160a01b0316905080156107e1578154604051632e9ca9d360e11b81526001600160a01b03831691635d3953a6916107ae918a9133918a91600091906004016136e9565b600060405180830381600087803b1580156107c857600080fd5b505af11580156107dc573d6000803e3d6000fd5b505050505b6107ec858786612294565b9450836001600160a01b031686336001600160a01b03167f8166bf25f8a2b7ed3c85049207da4358d16edbed977d23fa2ee6f0dde3ec2132886040516106c891906136e0565b6071602052600090815260409020546001600160a01b031681565b6068818154811061085a57fe5b60009182526020909120600490910201805460018201546002830154600390930154919350919084565b606d5481565b610892612f86565b61089b836110a5565b6000848152606c602090815260408083203384529091528120606f5483518254949550919390916108cc9190612214565b816108d357fe5b04905060006108f76108f284600101548461224e90919063ffffffff16565b612418565b905061090161103d565b60018301829055801561092557606654610925906001600160a01b0316868361243e565b6000606a878154811061093457fe5b6000918252602090912001546001600160a01b0316905080156109b9578354604051632e9ca9d360e11b81526001600160a01b03831691635d3953a691610986918b9133918c918991906004016136e9565b600060405180830381600087803b1580156109a057600080fd5b505af11580156109b4573d6000803e3d6000fd5b505050505b86336001600160a01b03167f71bab65ced2e5750775a0613be067df48ef06cf92a496ebf7663ae0660924954846040516109f391906136e0565b60405180910390a350505050505050565b6040516370a0823160e01b81526000906001600160a01b038316906370a0823190610a339033906004016132c1565b60206040518083038186803b158015610a4b57600080fd5b505afa158015610a5f573d6000803e3d6000fd5b505050506040513d601f19601f82011682018060405250810190610a839190613171565b905080610aa25760405162461bcd60e51b81526004016104e09061336a565b610ab76001600160a01b03831633308461252c565b60655460405163095ea7b360e01b81526001600160a01b038481169263095ea7b392610aeb929091169085906004016132f9565b602060405180830381600087803b158015610b0557600080fd5b505af1158015610b19573d6000803e3d6000fd5b505050506040513d601f19601f82011682018060405250810190610b3d9190613055565b50606554606754604051631c57762b60e31b81526001600160a01b039092169163e2bbb15891610b71918590600401613728565b600060405180830381600087803b158015610b8b57600080fd5b505af1158015610b9f573d6000803e3d6000fd5b50506040517f98a9bd3b7a617581fc53b1e2992534e0e0cb5091c9d44aa1a7fc978f706caa83925060009150a15050565b6000610bda612f86565b60688481548110610be757fe5b6000918252602080832060408051608081018252600490940290910180548452600181015484840152600281015484830152600301546060840152878452606c82528084206001600160a01b038816855290915282208151606b8054939550919390929091829189908110610c5857fe5b6000918252602090912001546001600160a01b031614610da657610d9f606b8881548110610c8257fe5b600091825260209182902001546040805163722713f760e01b815290516001600160a01b039092169263722713f792600480840193829003018186803b158015610ccb57600080fd5b505afa158015610cdf573d6000803e3d6000fd5b505050506040513d601f19601f82011682018060405250810190610d039190613171565b60698981548110610d1057fe5b6000918252602090912001546040516370a0823160e01b81526001600160a01b03909116906370a0823190610d499030906004016132c1565b60206040518083038186803b158015610d6157600080fd5b505afa158015610d75573d6000803e3d6000fd5b505050506040513d601f19601f82011682018060405250810190610d999190613171565b906121a4565b9050610e3f565b60698781548110610db357fe5b6000918252602090912001546040516370a0823160e01b81526001600160a01b03909116906370a0823190610dec9030906004016132c1565b60206040518083038186803b158015610e0457600080fd5b505afa158015610e18573d6000803e3d6000fd5b505050506040513d601f19601f82011682018060405250810190610e3c9190613171565b90505b836020015143118015610e5157508015155b15610ece576000610e6f8560200151436121d290919063ffffffff16565b90506000606d54610e968760400151610e90610e896117b3565b8690612214565b90612214565b81610e9d57fe5b049050610ec983610eb9606f548461221490919063ffffffff16565b81610ec057fe5b869190046121a4565b935050505b610f016108f28460010154606f54610ef386886000015461221490919063ffffffff16565b81610efa57fe5b049061224e565b979650505050505050565b6000828152606c602090815260408083203384529091528120805482825560018201839055606a80549293919286908110610f4357fe5b6000918252602090912001546001600160a01b031690508015610fc857604051632e9ca9d360e11b81526001600160a01b03821690635d3953a690610f959088903390899060009081906004016136e9565b600060405180830381600087803b158015610faf57600080fd5b505af1158015610fc3573d6000803e3d6000fd5b505050505b610fd3828686612294565b9150836001600160a01b031685336001600160a01b03167f2cac5e20e1541d836381527a43f651851e302817b71dc8e810284e69210c1c6b8560405161101991906136e0565b60405180910390a45050505050565b606f5481565b6070546001600160a01b031681565b606554606754604051631c57762b60e31b81526001600160a01b039092169163e2bbb1589161107191600090600401613728565b600060405180830381600087803b15801561108b57600080fd5b505af115801561109f573d6000803e3d6000fd5b50505050565b6110ad612f86565b606882815481106110ba57fe5b906000526020600020906004020160405180608001604052908160008201548152602001600182015481526020016002820154815260200160038201548152505090508060200151431115611382576000806001600160a01b0316606b848154811061112257fe5b6000918252602090912001546001600160a01b0316146111e1576111da606b848154811061114c57fe5b600091825260209182902001546040805163722713f760e01b815290516001600160a01b039092169263722713f792600480840193829003018186803b15801561119557600080fd5b505afa1580156111a9573d6000803e3d6000fd5b505050506040513d601f19601f820116820180604052508101906111cd9190613171565b60698581548110610d1057fe5b905061127a565b606983815481106111ee57fe5b6000918252602090912001546040516370a0823160e01b81526001600160a01b03909116906370a08231906112279030906004016132c1565b60206040518083038186803b15801561123f57600080fd5b505afa158015611253573d6000803e3d6000fd5b505050506040513d601f19601f820116820180604052508101906112779190613171565b90505b80156112ec5760006112998360200151436121d290919063ffffffff16565b90506000606d546112b38560400151610e90610e896117b3565b816112ba57fe5b0490506112e7836112d6606f548461221490919063ffffffff16565b816112dd57fe5b86519190046121a4565b845250505b436020830152606880548391908590811061130357fe5b906000526020600020906004020160008201518160000155602082015181600101556040820151816002015560608201518160030155905050827fcb7325664a4a3b7c7223eefc492a97ca4fdf94d46884621e5a8fae5a04b2b9d2836020015183856000015160405161137893929190613736565b60405180910390a2505b919050565b8060005b8181101561109f576113ae8484838181106113a257fe5b905060200201356110a5565b5060010161138b565b60675481565b6072546001600160a01b031681565b6072546001600160a01b03163314806113fd57506113e86118ce565b6001600160a01b0316336001600160a01b0316145b6114195760405162461bcd60e51b81526004016104e090613512565b607280546001600160a01b0319166001600160a01b0392909216919091179055565b6114436121a0565b6001600160a01b03166114546118ce565b6001600160a01b03161461147a5760405162461bcd60e51b81526004016104e0906135ad565b6114b185610d996068898154811061148e57fe5b906000526020600020906004020160020154606d546121d290919063ffffffff16565b606d8190555084606887815481106114c557fe5b90600052602060002090600402016002018190555081606887815481106114e857fe5b90600052602060002090600402016003018190555080156116155783606a878154811061151157fe5b600091825260209091200180546001600160a01b0319166001600160a01b03928316179055606b8054918516918890811061154857fe5b6000918252602090912001546001600160a01b0316146116155760006001600160a01b0316606b878154811061157a57fe5b6000918252602090912001546001600160a01b0316146115bf576115bf86606b88815481106115a557fe5b6000918252602090912001546001600160a01b031661261d565b6001600160a01b038316156115d8576115d88684612919565b82606b87815481106115e657fe5b9060005260206000200160006101000a8154816001600160a01b0302191690836001600160a01b031602179055505b8061164157606a868154811061162757fe5b6000918252602090912001546001600160a01b0316611643565b835b6001600160a01b0316867f95895a6ab1df54420d241b55243258a33e61b2194db66c1179ec521aae8e1865878460405161167e929190613718565b60405180910390a3505050505050565b606e5481565b61169c6121a0565b6001600160a01b03166116ad6118ce565b6001600160a01b0316146116d35760405162461bcd60e51b81526004016104e0906135ad565b6033546040516000916001600160a01b0316907f8be0079c531659141344cd1fd0a4f28419497f9722a3daafe3b4186f6b6457e0908390a3603380546001600160a01b0319169055565b6069818154811061172a57fe5b6000918252602090912001546001600160a01b0316905081565b6070546001600160a01b031633148061177557506117606118ce565b6001600160a01b0316336001600160a01b0316145b6117915760405162461bcd60e51b81526004016104e0906135e2565b607080546001600160a01b0319166001600160a01b0392909216919091179055565b606554604080516317caf6f160e01b815290516000926001600160a01b0316916317caf6f1916004808301926020929190829003018186803b1580156117f857600080fd5b505afa15801561180c573d6000803e3d6000fd5b505050506040513d601f19601f820116820180604052508101906118309190613171565b606554606754604051631526fe2760e01b81526118c1926001600160a01b031691631526fe279161186491906004016136e0565b60806040518083038186803b15801561187c57600080fd5b505afa158015611890573d6000803e3d6000fd5b505050506040513d601f19601f820116820180604052508101906118b491906130ef565b60200151606e5490612214565b816118c857fe5b04905090565b6033546001600160a01b031690565b6118e5612f86565b6118ee846110a5565b6000858152606c602090815260408083206001600160a01b038088168552908352818420898552607190935292205492935091168061193557506070546001600160a01b03165b600061195a61271061195486606001518961221490919063ffffffff16565b90612c96565b835490915061197590829061196f90896121a4565b906121d2565b8355606f5484516119a0919061198c908990612214565b8161199357fe5b6001860154919004612cd8565b83600101819055506000606a88815481106119b757fe5b6000918252602090912001546001600160a01b031690508015611a3d578354604051632e9ca9d360e11b81526001600160a01b03831691635d3953a691611a0a918c918b918291600091906004016136e9565b600060405180830381600087803b158015611a2457600080fd5b505af1158015611a38573d6000803e3d6000fd5b505050505b611a6d33308960698c81548110611a5057fe5b6000918252602090912001546001600160a01b031692919061252c565b611a9b838360698b81548110611a7f57fe5b6000918252602090912001546001600160a01b0316919061243e565b6000606b8981548110611aaa57fe5b6000918252602090912001546001600160a01b031690508015611bc857600060698a81548110611ad657fe5b6000918252602090912001546040516370a0823160e01b81526001600160a01b03909116906370a0823190611b0f9030906004016132c1565b60206040518083038186803b158015611b2757600080fd5b505afa158015611b3b573d6000803e3d6000fd5b505050506040513d601f19601f82011682018060405250810190611b5f9190613171565b9050611b73828260698d81548110611a7f57fe5b816001600160a01b031663d0e30db06040518163ffffffff1660e01b8152600401600060405180830381600087803b158015611bae57600080fd5b505af1158015611bc2573d6000803e3d6000fd5b50505050505b866001600160a01b031689336001600160a01b03167f02d7e648dd130fc184d383e55bb126ac4c9c60e8f94bf05acdf557ba2d540b478b604051611c0c91906136e0565b60405180910390a4505050505050505050565b606c6020908152600092835260408084209091529082529020805460019091015482565b6066546001600160a01b031681565b606b5460005b81811015611d085760006001600160a01b0316606b8281548110611c7857fe5b6000918252602090912001546001600160a01b031614611d0057606b8181548110611c9f57fe5b600091825260208220015460408051634641257d60e01b815290516001600160a01b0390921692634641257d9260048084019382900301818387803b158015611ce757600080fd5b505af1158015611cfb573d6000803e3d6000fd5b505050505b600101611c58565b5050565b6070546001600160a01b0316331480611d3d5750611d286118ce565b6001600160a01b0316336001600160a01b0316145b611d595760405162461bcd60e51b81526004016104e0906135e2565b60009182526071602052604090912080546001600160a01b0319166001600160a01b03909216919091179055565b600054610100900460ff1680611da05750611da0612d1e565b80611dae575060005460ff16155b611dca5760405162461bcd60e51b81526004016104e0906134c4565b600054610100900460ff16158015611df5576000805460ff1961ff0019909116610100171660011790555b611dfd612d2f565b606680546001600160a01b038087166001600160a01b031992831617909255607080548684169083161790556072805492851692909116919091179055670de0b6b3a7640000606f55801561109f576000805461ff001916905550505050565b606a818154811061172a57fe5b611e72612f86565b611e7b846110a5565b6000858152606c602090815260408083203384529091528120606f548351825494955091939091611eac9190612214565b81611eb357fe5b0490506000611ed26108f284600101548461224e90919063ffffffff16565b606f548551919250611ef991611ee9908990612214565b81611ef057fe5b8491900461224e565b60018401558254611f0a90876121d2565b8355606654611f23906001600160a01b0316868361243e565b6000606a8881548110611f3257fe5b6000918252602090912001546001600160a01b031690508015611fb7578354604051632e9ca9d360e11b81526001600160a01b03831691635d3953a691611f84918c9133918c918991906004016136e9565b600060405180830381600087803b158015611f9e57600080fd5b505af1158015611fb2573d6000803e3d6000fd5b505050505b611fc2878988612294565b50856001600160a01b031688336001600160a01b03167f8166bf25f8a2b7ed3c85049207da4358d16edbed977d23fa2ee6f0dde3ec21328a60405161200791906136e0565b60405180910390a487336001600160a01b03167f71bab65ced2e5750775a0613be067df48ef06cf92a496ebf7663ae06609249548460405161204991906136e0565b60405180910390a35050505050505050565b606b818154811061172a57fe5b6120706121a0565b6001600160a01b03166120816118ce565b6001600160a01b0316146120a75760405162461bcd60e51b81526004016104e0906135ad565b606580546001600160a01b0319166001600160a01b039490941693909317909255606755606e55565b6065546001600160a01b031681565b6120e76121a0565b6001600160a01b03166120f86118ce565b6001600160a01b03161461211e5760405162461bcd60e51b81526004016104e0906135ad565b6001600160a01b0381166121445760405162461bcd60e51b81526004016104e0906133e4565b6033546040516001600160a01b038084169216907f8be0079c531659141344cd1fd0a4f28419497f9722a3daafe3b4186f6b6457e090600090a3603380546001600160a01b0319166001600160a01b0392909216919091179055565b3390565b6000828201838110156121c95760405162461bcd60e51b81526004016104e09061342a565b90505b92915050565b60006121c983836040518060400160405280601e81526020017f536166654d6174683a207375627472616374696f6e206f766572666c6f770000815250612dc2565b600082612223575060006121cc565b8282028284828161223057fe5b04146121c95760405162461bcd60e51b81526004016104e09061356c565b60008183038183128015906122635750838113155b80612278575060008312801561227857508381135b6121c95760405162461bcd60e51b81526004016104e09061363c565b600080606984815481106122a457fe5b6000918252602090912001546040516370a0823160e01b81526001600160a01b03909116906370a08231906122dd9030906004016132c1565b60206040518083038186803b1580156122f557600080fd5b505afa158015612309573d6000803e3d6000fd5b505050506040513d601f19601f8201168201806040525081019061232d9190613171565b90506000606b858154811061233e57fe5b6000918252602090912001546001600160a01b03169050818611156123fc57600061236987846121d2565b90506000826001600160a01b0316632e1a7d4d836040518263ffffffff1660e01b815260040161239991906136e0565b602060405180830381600087803b1580156123b357600080fd5b505af11580156123c7573d6000803e3d6000fd5b505050506040513d601f19601f820116820180604052508101906123eb9190613171565b90506123f784826121a4565b975050505b61240e848760698881548110611a7f57fe5b5093949350505050565b60008082121561243a5760405162461bcd60e51b81526004016104e090613345565b5090565b60006060846001600160a01b031663a9059cbb85856040516024016124649291906132f9565b6040516020818303038152906040529060e01b6020820180516001600160e01b03838183161783525050505060405161249d91906132a5565b6000604051808303816000865af19150503d80600081146124da576040519150601f19603f3d011682016040523d82523d6000602084013e6124df565b606091505b50915091508180156125095750805115806125095750808060200190518101906125099190613055565b6125255760405162461bcd60e51b81526004016104e0906133ad565b5050505050565b60006060856001600160a01b03166323b872dd868686604051602401612554939291906132d5565b6040516020818303038152906040529060e01b6020820180516001600160e01b03838183161783525050505060405161258d91906132a5565b6000604051808303816000865af19150503d80600081146125ca576040519150601f19603f3d011682016040523d82523d6000602084013e6125cf565b606091505b50915091508180156125f95750805115806125f95750808060200190518101906125f99190613055565b6126155760405162461bcd60e51b81526004016104e090613680565b505050505050565b60006069838154811061262c57fe5b9060005260206000200160009054906101000a90046001600160a01b031690506000826001600160a01b031663722713f76040518163ffffffff1660e01b815260040160206040518083038186803b15801561268757600080fd5b505afa15801561269b573d6000803e3d6000fd5b505050506040513d601f19601f820116820180604052508101906126bf9190613171565b9050826001600160a01b0316631f1fcd516040518163ffffffff1660e01b815260040160206040518083038186803b1580156126fa57600080fd5b505afa15801561270e573d6000803e3d6000fd5b505050506040513d601f19601f820116820180604052508101906127329190612fca565b6001600160a01b0316826001600160a01b0316146127625760405162461bcd60e51b81526004016104e0906134a2565b801561109f57604051632e1a7d4d60e01b81526001600160a01b03841690632e1a7d4d906127949084906004016136e0565b602060405180830381600087803b1580156127ae57600080fd5b505af11580156127c2573d6000803e3d6000fd5b505050506040513d601f19601f820116820180604052508101906127e69190613171565b506040516370a0823160e01b81526000906001600160a01b038416906370a08231906128169030906004016132c1565b60206040518083038186803b15801561282e57600080fd5b505afa158015612842573d6000803e3d6000fd5b505050506040513d601f19601f820116820180604052508101906128669190613171565b9050818110156128885760405162461bcd60e51b81526004016104e090613619565b836001600160a01b031663722713f76040518163ffffffff1660e01b815260040160206040518083038186803b1580156128c157600080fd5b505afa1580156128d5573d6000803e3d6000fd5b505050506040513d601f19601f820116820180604052508101906128f99190613171565b915081156125255760405162461bcd60e51b81526004016104e090613549565b60006069838154811061292857fe5b9060005260206000200160009054906101000a90046001600160a01b031690506000826001600160a01b031663722713f76040518163ffffffff1660e01b815260040160206040518083038186803b15801561298357600080fd5b505afa158015612997573d6000803e3d6000fd5b505050506040513d601f19601f820116820180604052508101906129bb9190613171565b90506000826001600160a01b03166370a08231306040518263ffffffff1660e01b81526004016129eb91906132c1565b60206040518083038186803b158015612a0357600080fd5b505afa158015612a17573d6000803e3d6000fd5b505050506040513d601f19601f82011682018060405250810190612a3b9190613171565b9050836001600160a01b0316631f1fcd516040518163ffffffff1660e01b815260040160206040518083038186803b158015612a7657600080fd5b505afa158015612a8a573d6000803e3d6000fd5b505050506040513d601f19601f82011682018060405250810190612aae9190612fca565b6001600160a01b0316836001600160a01b031614612ade5760405162461bcd60e51b81526004016104e0906134a2565b801561252557612af86001600160a01b038416858361243e565b836001600160a01b031663d0e30db06040518163ffffffff1660e01b8152600401600060405180830381600087803b158015612b3357600080fd5b505af1158015612b47573d6000803e3d6000fd5b505050506000846001600160a01b031663722713f76040518163ffffffff1660e01b815260040160206040518083038186803b158015612b8657600080fd5b505afa158015612b9a573d6000803e3d6000fd5b505050506040513d601f19601f82011682018060405250810190612bbe9190613171565b90506000612bcc82856121d2565b9050828114612bed5760405162461bcd60e51b81526004016104e090613619565b6040516370a0823160e01b81526000906001600160a01b038716906370a0823190612c1c9030906004016132c1565b60206040518083038186803b158015612c3457600080fd5b505afa158015612c48573d6000803e3d6000fd5b505050506040513d601f19601f82011682018060405250810190612c6c9190613171565b90508015612c8c5760405162461bcd60e51b81526004016104e090613549565b5050505050505050565b60006121c983836040518060400160405280601a81526020017f536166654d6174683a206469766973696f6e206279207a65726f000000000000815250612dee565b6000828201818312801590612ced5750838112155b80612d025750600083128015612d0257508381125b6121c95760405162461bcd60e51b81526004016104e090613461565b6000612d2930612e25565b15905090565b600054610100900460ff1680612d485750612d48612d1e565b80612d56575060005460ff16155b612d725760405162461bcd60e51b81526004016104e0906134c4565b600054610100900460ff16158015612d9d576000805460ff1961ff0019909116610100171660011790555b612da5612e2b565b612dad612eac565b8015612dbf576000805461ff00191690555b50565b60008184841115612de65760405162461bcd60e51b81526004016104e09190613312565b505050900390565b60008183612e0f5760405162461bcd60e51b81526004016104e09190613312565b506000838581612e1b57fe5b0495945050505050565b3b151590565b600054610100900460ff1680612e445750612e44612d1e565b80612e52575060005460ff16155b612e6e5760405162461bcd60e51b81526004016104e0906134c4565b600054610100900460ff16158015612dad576000805460ff1961ff0019909116610100171660011790558015612dbf576000805461ff001916905550565b600054610100900460ff1680612ec55750612ec5612d1e565b80612ed3575060005460ff16155b612eef5760405162461bcd60e51b81526004016104e0906134c4565b600054610100900460ff16158015612f1a576000805460ff1961ff0019909116610100171660011790555b6000612f246121a0565b603380546001600160a01b0319166001600160a01b038316908117909155604051919250906000907f8be0079c531659141344cd1fd0a4f28419497f9722a3daafe3b4186f6b6457e0908290a3508015612dbf576000805461ff001916905550565b6040518060800160405280600081526020016000815260200160008152602001600081525090565b600060208284031215612fbf578081fd5b81356121c981613793565b600060208284031215612fdb578081fd5b81516121c981613793565b60008060208385031215612ff8578081fd5b823567ffffffffffffffff8082111561300f578283fd5b818501915085601f830112613022578283fd5b813581811115613030578384fd5b8660208083028501011115613043578384fd5b60209290920196919550909350505050565b600060208284031215613066578081fd5b81516121c9816137a8565b600080600060608486031215613085578081fd5b833561309081613793565b925060208401356130a081613793565b915060408401356130b081613793565b809150509250925092565b6000806000606084860312156130cf578283fd5b83356130da81613793565b95602085013595506040909401359392505050565b600060808284031215613100578081fd5b6040516080810181811067ffffffffffffffff8211171561311f578283fd5b604052825161312d81613793565b808252506020830151602082015260408301516040820152606083015160608201528091505092915050565b60006020828403121561316a578081fd5b5035919050565b600060208284031215613182578081fd5b5051919050565b6000806040838503121561319b578182fd5b8235915060208301356131ad81613793565b809150509250929050565b600080600080600060a086880312156131cf578081fd5b8535945060208601356131e181613793565b935060408601356131f181613793565b9250606086013561320181613793565b949793965091946080013592915050565b600080600060608486031215613226578081fd5b833592506020840135915060408401356130b081613793565b60008060008060008060c08789031215613257578384fd5b8635955060208701359450604087013561327081613793565b9350606087013561328081613793565b92506080870135915060a0870135613297816137a8565b809150509295509295509295565b600082516132b7818460208701613767565b9190910192915050565b6001600160a01b0391909116815260200190565b6001600160a01b039384168152919092166020820152604081019190915260600190565b6001600160a01b03929092168252602082015260400190565b6000602082528251806020840152613331816040850160208701613767565b601f01601f19169190910160400192915050565b6020808252600b908201526a0496e7465676572203c20360ac1b604082015260600190565b60208082526023908201527f4d61737465724368656656323a2042616c616e6365206d75737420657863656560408201526206420360ec1b606082015260800190565b6020808252601c908201527f426f72696e6745524332303a205472616e73666572206661696c656400000000604082015260600190565b60208082526026908201527f4f776e61626c653a206e6577206f776e657220697320746865207a65726f206160408201526564647265737360d01b606082015260800190565b6020808252601b908201527f536166654d6174683a206164646974696f6e206f766572666c6f770000000000604082015260600190565b60208082526021908201527f5369676e6564536166654d6174683a206164646974696f6e206f766572666c6f6040820152607760f81b606082015260800190565b60208082526008908201526710b6382a37b5b2b760c11b604082015260600190565b6020808252602e908201527f496e697469616c697a61626c653a20636f6e747261637420697320616c72656160408201526d191e481a5b9a5d1a585b1a5e995960921b606082015260800190565b6020808252601d908201527f7365745472656173757279416464726573733a20464f5242494444454e000000604082015260600190565b60208082526009908201526810b130b630b731b29960b91b604082015260600190565b60208082526021908201527f536166654d6174683a206d756c7469706c69636174696f6e206f766572666c6f6040820152607760f81b606082015260800190565b6020808252818101527f4f776e61626c653a2063616c6c6572206973206e6f7420746865206f776e6572604082015260600190565b60208082526018908201527f736574466565416464726573733a20464f5242494444454e0000000000000000604082015260600190565b6020808252600990820152682162616c616e63653160b81b604082015260600190565b60208082526024908201527f5369676e6564536166654d6174683a207375627472616374696f6e206f766572604082015263666c6f7760e01b606082015260800190565b6020808252818101527f426f72696e6745524332303a205472616e7366657246726f6d206661696c6564604082015260600190565b8151815260208083015190820152604080830151908201526060918201519181019190915260800190565b90815260200190565b9485526001600160a01b0393841660208601529190921660408401526060830191909152608082015260a00190565b9182521515602082015260400190565b918252602082015260400190565b9283526020830191909152604082015260600190565b93845260208401929092526040830152606082015260800190565b60005b8381101561378257818101518382015260200161376a565b8381111561109f5750506000910152565b6001600160a01b0381168114612dbf57600080fd5b8015158114612dbf57600080fdfea2646970667358221220e80763149f6433b3765982be65472a5944f5d0cebb4f2c70b86b8ec774e1712864736f6c634300060c0033",
  "devdoc": {
    "kind": "dev",
    "methods": {
      "add(uint256,address,address,address,uint256)": {
        "params": {
          "_lpToken": "Address of the LP ERC-20 token.",
          "_rewarder": "Address of the rewarder delegate.",
          "_strategy": "Address of the strategy to send user-deposited lp tokens to ",
          "allocPoint": "AP of the new pool."
        }
      },
      "deposit(uint256,uint256,address)": {
        "params": {
          "amount": "LP token amount to deposit.",
          "pid": "The index of the pool. See `poolInfo`.",
          "to": "The receiver of `amount` deposit benefit."
        }
      },
      "emergencyWithdraw(uint256,address)": {
        "params": {
          "pid": "The index of the pool. See `poolInfo`.",
          "to": "Receiver of the LP tokens."
        }
      },
      "harvest(uint256,address)": {
        "params": {
          "pid": "The index of the pool. See `poolInfo`.",
          "to": "Receiver of PARTS rewards."
        }
      },
      "init(address)": {
        "params": {
          "dummyToken": "The address of the ERC-20 token to deposit into MCV1."
        }
      },
      "massUpdatePools(uint256[])": {
        "params": {
          "pids": "Pool IDs of all to be updated. Make sure to update all active pools."
        }
      },
      "owner()": {
        "details": "Returns the address of the current owner."
      },
      "pendingParts(uint256,address)": {
        "params": {
          "_pid": "The index of the pool. See `poolInfo`.",
          "_user": "Address of user."
        },
        "returns": {
          "pending": "PARTS reward for a given user."
        }
      },
      "renounceOwnership()": {
        "details": "Leaves the contract without owner. It will not be possible to call `onlyOwner` functions anymore. Can only be called by the current owner. NOTE: Renouncing ownership will leave the contract without an owner, thereby removing any functionality that is only available to the owner."
      },
      "set(uint256,uint256,address,address,uint256,bool)": {
        "params": {
          "_allocPoint": "New AP of the pool.",
          "_pid": "The index of the pool. See `poolInfo`.",
          "_rewarder": "Address of the rewarder delegate.",
          "overwrite": "True if _rewarder should be `set`. Otherwise `_rewarder` is ignored."
        }
      },
      "transferOwnership(address)": {
        "details": "Transfers ownership of the contract to a new account (`newOwner`). Can only be called by the current owner."
      },
      "updatePool(uint256)": {
        "params": {
          "pid": "The index of the pool. See `poolInfo`."
        },
        "returns": {
          "pool": "Returns the pool that was updated."
        }
      },
      "withdraw(uint256,uint256,address)": {
        "params": {
          "amount": "LP token amount to withdraw.",
          "pid": "The index of the pool. See `poolInfo`.",
          "to": "Receiver of the LP tokens."
        }
      },
      "withdrawAndHarvest(uint256,uint256,address)": {
        "params": {
          "amount": "LP token amount to withdraw.",
          "pid": "The index of the pool. See `poolInfo`.",
          "to": "Receiver of the LP tokens and PARTS rewards."
        }
      }
    },
    "stateVariables": {
      "totalAllocPoint": {
        "details": "Total allocation points. Must be the sum of all allocation points in all pools."
      }
    },
    "version": 1
  },
  "userdoc": {
    "kind": "user",
    "methods": {
      "MASTER_CHEF()": {
        "notice": "Address of MCV1 contract."
      },
      "MASTER_PID()": {
        "notice": "The index of MCV2 master pool in MCV1."
      },
      "PARTS()": {
        "notice": "Address of PARTS contract."
      },
      "add(uint256,address,address,address,uint256)": {
        "notice": "Add a new LP to the pool. Can only be called by the owner. DO NOT add the same LP token more than once. Rewards will be messed up if you do."
      },
      "deposit(uint256,uint256,address)": {
        "notice": "Deposit LP tokens to MCV2 for PARTS allocation."
      },
      "emergencyWithdraw(uint256,address)": {
        "notice": "Withdraw without caring about rewards. EMERGENCY ONLY."
      },
      "harvest(uint256,address)": {
        "notice": "Harvest proceeds for transaction sender to `to`."
      },
      "harvestFromMasterChef()": {
        "notice": "Harvests PARTS from `MASTER_CHEF` MCV1 and pool `MASTER_PID` to this MCV2 contract."
      },
      "init(address)": {
        "notice": "Deposits a dummy token to `MASTER_CHEF` MCV1. This is required because MCV1 holds the minting rights for PARTS. Any balance of transaction sender in `dummyToken` is transferred. The allocation point for the pool on MCV1 is the total allocation point for all pools that receive double incentives."
      },
      "lpToken(uint256)": {
        "notice": "Address of the LP token for each MCV2 pool."
      },
      "massUpdatePools(uint256[])": {
        "notice": "Update reward variables for all pools. Be careful of gas spending!"
      },
      "partsPerBlock()": {
        "notice": "Calculates and returns the `amount` of PARTS per block."
      },
      "pendingParts(uint256,address)": {
        "notice": "View function to see pending PARTS on frontend."
      },
      "poolInfo(uint256)": {
        "notice": "Info of each MCV2 pool."
      },
      "poolLength()": {
        "notice": "Returns the number of MCV2 pools."
      },
      "rewarder(uint256)": {
        "notice": "Address of each `IRewarder` contract in MCV2."
      },
      "set(uint256,uint256,address,address,uint256,bool)": {
        "notice": "Update the given pool's PARTS allocation point and `IRewarder` contract. Can only be called by the owner."
      },
      "strategies(uint256)": {
        "notice": "Address of each `IStrategy`."
      },
      "updatePool(uint256)": {
        "notice": "Update reward variables of the given pool."
      },
      "userInfo(uint256,address)": {
        "notice": "Info of each user that stakes LP tokens."
      },
      "withdraw(uint256,uint256,address)": {
        "notice": "Withdraw LP tokens from MCV2."
      },
      "withdrawAndHarvest(uint256,uint256,address)": {
        "notice": "Withdraw LP tokens from MCV2 and harvest proceeds for transaction sender to `to`."
      }
    },
    "notice": "The (older) MasterChef contract gives out a constant number of PARTS tokens per block. It is the only address with minting rights for PARTS. The idea for this MasterChef V2 (MCV2) contract is therefore to be the owner of a dummy token that is deposited into the MasterChef V1 (MCV1) contract. The allocation point for this pool on MCV1 is the total allocation point for all pools that receive double incentives.",
    "version": 1
  },
  "storageLayout": {
    "storage": [
      {
        "astId": 979,
        "contract": "contracts/MasterChefV2.sol:MasterChefV2",
        "label": "_initialized",
        "offset": 0,
        "slot": "0",
        "type": "t_bool"
      },
      {
        "astId": 982,
        "contract": "contracts/MasterChefV2.sol:MasterChefV2",
        "label": "_initializing",
        "offset": 1,
        "slot": "0",
        "type": "t_bool"
      },
      {
        "astId": 1326,
        "contract": "contracts/MasterChefV2.sol:MasterChefV2",
        "label": "__gap",
        "offset": 0,
        "slot": "1",
        "type": "t_array(t_uint256)50_storage"
      },
      {
        "astId": 852,
        "contract": "contracts/MasterChefV2.sol:MasterChefV2",
        "label": "_owner",
        "offset": 0,
        "slot": "51",
        "type": "t_address"
      },
      {
        "astId": 971,
        "contract": "contracts/MasterChefV2.sol:MasterChefV2",
        "label": "__gap",
        "offset": 0,
        "slot": "52",
        "type": "t_array(t_uint256)49_storage"
      },
      {
        "astId": 4124,
        "contract": "contracts/MasterChefV2.sol:MasterChefV2",
        "label": "MASTER_CHEF",
        "offset": 0,
        "slot": "101",
        "type": "t_contract(IMasterChef)7039"
      },
      {
        "astId": 4127,
        "contract": "contracts/MasterChefV2.sol:MasterChefV2",
        "label": "PARTS",
        "offset": 0,
        "slot": "102",
        "type": "t_contract(IERC20)337"
      },
      {
        "astId": 4130,
        "contract": "contracts/MasterChefV2.sol:MasterChefV2",
        "label": "MASTER_PID",
        "offset": 0,
        "slot": "103",
        "type": "t_uint256"
      },
      {
        "astId": 4134,
        "contract": "contracts/MasterChefV2.sol:MasterChefV2",
        "label": "poolInfo",
        "offset": 0,
        "slot": "104",
        "type": "t_array(t_struct(PoolInfo)4121_storage)dyn_storage"
      },
      {
        "astId": 4138,
        "contract": "contracts/MasterChefV2.sol:MasterChefV2",
        "label": "lpToken",
        "offset": 0,
        "slot": "105",
        "type": "t_array(t_contract(IERC20)337)dyn_storage"
      },
      {
        "astId": 4142,
        "contract": "contracts/MasterChefV2.sol:MasterChefV2",
        "label": "rewarder",
        "offset": 0,
        "slot": "106",
        "type": "t_array(t_contract(IRewarder)7100)dyn_storage"
      },
      {
        "astId": 4146,
        "contract": "contracts/MasterChefV2.sol:MasterChefV2",
        "label": "strategies",
        "offset": 0,
        "slot": "107",
        "type": "t_array(t_contract(IStrategy)7199)dyn_storage"
      },
      {
        "astId": 4153,
        "contract": "contracts/MasterChefV2.sol:MasterChefV2",
        "label": "userInfo",
        "offset": 0,
        "slot": "108",
        "type": "t_mapping(t_uint256,t_mapping(t_address,t_struct(UserInfo)4112_storage))"
      },
      {
        "astId": 4156,
        "contract": "contracts/MasterChefV2.sol:MasterChefV2",
        "label": "totalAllocPoint",
        "offset": 0,
        "slot": "109",
        "type": "t_uint256"
      },
      {
        "astId": 4158,
        "contract": "contracts/MasterChefV2.sol:MasterChefV2",
        "label": "MASTERCHEF_PARTS_PER_BLOCK",
        "offset": 0,
        "slot": "110",
        "type": "t_uint256"
      },
      {
        "astId": 4160,
        "contract": "contracts/MasterChefV2.sol:MasterChefV2",
        "label": "ACC_PARTS_PRECISION",
        "offset": 0,
        "slot": "111",
        "type": "t_uint256"
      },
      {
        "astId": 4162,
        "contract": "contracts/MasterChefV2.sol:MasterChefV2",
        "label": "feeAddress",
        "offset": 0,
        "slot": "112",
        "type": "t_address"
      },
      {
        "astId": 4166,
        "contract": "contracts/MasterChefV2.sol:MasterChefV2",
        "label": "feeAddresses",
        "offset": 0,
        "slot": "113",
        "type": "t_mapping(t_uint256,t_address)"
      },
      {
        "astId": 4168,
        "contract": "contracts/MasterChefV2.sol:MasterChefV2",
        "label": "treasury",
        "offset": 0,
        "slot": "114",
        "type": "t_address"
      }
    ],
    "types": {
      "t_address": {
        "encoding": "inplace",
        "label": "address",
        "numberOfBytes": "20"
      },
      "t_array(t_contract(IERC20)337)dyn_storage": {
        "base": "t_contract(IERC20)337",
        "encoding": "dynamic_array",
        "label": "contract IERC20[]",
        "numberOfBytes": "32"
      },
      "t_array(t_contract(IRewarder)7100)dyn_storage": {
        "base": "t_contract(IRewarder)7100",
        "encoding": "dynamic_array",
        "label": "contract IRewarder[]",
        "numberOfBytes": "32"
      },
      "t_array(t_contract(IStrategy)7199)dyn_storage": {
        "base": "t_contract(IStrategy)7199",
        "encoding": "dynamic_array",
        "label": "contract IStrategy[]",
        "numberOfBytes": "32"
      },
      "t_array(t_struct(PoolInfo)4121_storage)dyn_storage": {
        "base": "t_struct(PoolInfo)4121_storage",
        "encoding": "dynamic_array",
        "label": "struct MasterChefV2.PoolInfo[]",
        "numberOfBytes": "32"
      },
      "t_array(t_uint256)49_storage": {
        "base": "t_uint256",
        "encoding": "inplace",
        "label": "uint256[49]",
        "numberOfBytes": "1568"
      },
      "t_array(t_uint256)50_storage": {
        "base": "t_uint256",
        "encoding": "inplace",
        "label": "uint256[50]",
        "numberOfBytes": "1600"
      },
      "t_bool": {
        "encoding": "inplace",
        "label": "bool",
        "numberOfBytes": "1"
      },
      "t_contract(IERC20)337": {
        "encoding": "inplace",
        "label": "contract IERC20",
        "numberOfBytes": "20"
      },
      "t_contract(IMasterChef)7039": {
        "encoding": "inplace",
        "label": "contract IMasterChef",
        "numberOfBytes": "20"
      },
      "t_contract(IRewarder)7100": {
        "encoding": "inplace",
        "label": "contract IRewarder",
        "numberOfBytes": "20"
      },
      "t_contract(IStrategy)7199": {
        "encoding": "inplace",
        "label": "contract IStrategy",
        "numberOfBytes": "20"
      },
      "t_int256": {
        "encoding": "inplace",
        "label": "int256",
        "numberOfBytes": "32"
      },
      "t_mapping(t_address,t_struct(UserInfo)4112_storage)": {
        "encoding": "mapping",
        "key": "t_address",
        "label": "mapping(address => struct MasterChefV2.UserInfo)",
        "numberOfBytes": "32",
        "value": "t_struct(UserInfo)4112_storage"
      },
      "t_mapping(t_uint256,t_address)": {
        "encoding": "mapping",
        "key": "t_uint256",
        "label": "mapping(uint256 => address)",
        "numberOfBytes": "32",
        "value": "t_address"
      },
      "t_mapping(t_uint256,t_mapping(t_address,t_struct(UserInfo)4112_storage))": {
        "encoding": "mapping",
        "key": "t_uint256",
        "label": "mapping(uint256 => mapping(address => struct MasterChefV2.UserInfo))",
        "numberOfBytes": "32",
        "value": "t_mapping(t_address,t_struct(UserInfo)4112_storage)"
      },
      "t_struct(PoolInfo)4121_storage": {
        "encoding": "inplace",
        "label": "struct MasterChefV2.PoolInfo",
        "members": [
          {
            "astId": 4114,
            "contract": "contracts/MasterChefV2.sol:MasterChefV2",
            "label": "accPartsPerShare",
            "offset": 0,
            "slot": "0",
            "type": "t_uint256"
          },
          {
            "astId": 4116,
            "contract": "contracts/MasterChefV2.sol:MasterChefV2",
            "label": "lastRewardBlock",
            "offset": 0,
            "slot": "1",
            "type": "t_uint256"
          },
          {
            "astId": 4118,
            "contract": "contracts/MasterChefV2.sol:MasterChefV2",
            "label": "allocPoint",
            "offset": 0,
            "slot": "2",
            "type": "t_uint256"
          },
          {
            "astId": 4120,
            "contract": "contracts/MasterChefV2.sol:MasterChefV2",
            "label": "depositFee",
            "offset": 0,
            "slot": "3",
            "type": "t_uint256"
          }
        ],
        "numberOfBytes": "128"
      },
      "t_struct(UserInfo)4112_storage": {
        "encoding": "inplace",
        "label": "struct MasterChefV2.UserInfo",
        "members": [
          {
            "astId": 4109,
            "contract": "contracts/MasterChefV2.sol:MasterChefV2",
            "label": "amount",
            "offset": 0,
            "slot": "0",
            "type": "t_uint256"
          },
          {
            "astId": 4111,
            "contract": "contracts/MasterChefV2.sol:MasterChefV2",
            "label": "rewardDebt",
            "offset": 0,
            "slot": "1",
            "type": "t_int256"
          }
        ],
        "numberOfBytes": "64"
      },
      "t_uint256": {
        "encoding": "inplace",
        "label": "uint256",
        "numberOfBytes": "32"
      }
    }
  }
}