{
  "address": "0x4Ece483a8880E23D8A73E57Da27d5349018bfDC6",
  "abi": [
    {
      "inputs": [
        {
          "internalType": "contract PartsToken",
          "name": "_parts",
          "type": "address"
        },
        {
          "internalType": "address",
          "name": "_devaddr",
          "type": "address"
        },
        {
          "internalType": "address",
          "name": "_feeAddress",
          "type": "address"
        },
        {
          "internalType": "uint256",
          "name": "_partsPerBlock",
          "type": "uint256"
        },
        {
          "internalType": "uint256",
          "name": "_startBlock",
          "type": "uint256"
        }
      ],
      "stateMutability": "nonpayable",
      "type": "constructor"
    },
    {
      "anonymous": false,
      "inputs": [
        {
          "indexed": true,
          "internalType": "address",
          "name": "user",
          "type": "address"
        },
        {
          "indexed": true,
          "internalType": "uint256",
          "name": "pid",
          "type": "uint256"
        },
        {
          "indexed": false,
          "internalType": "uint256",
          "name": "amount",
          "type": "uint256"
        }
      ],
      "name": "Deposit",
      "type": "event"
    },
    {
      "anonymous": false,
      "inputs": [
        {
          "indexed": true,
          "internalType": "address",
          "name": "user",
          "type": "address"
        },
        {
          "indexed": true,
          "internalType": "uint256",
          "name": "pid",
          "type": "uint256"
        },
        {
          "indexed": false,
          "internalType": "uint256",
          "name": "amount",
          "type": "uint256"
        }
      ],
      "name": "EmergencyWithdraw",
      "type": "event"
    },
    {
      "anonymous": false,
      "inputs": [
        {
          "indexed": true,
          "internalType": "address",
          "name": "previousOwner",
          "type": "address"
        },
        {
          "indexed": true,
          "internalType": "address",
          "name": "newOwner",
          "type": "address"
        }
      ],
      "name": "OwnershipTransferred",
      "type": "event"
    },
    {
      "anonymous": false,
      "inputs": [
        {
          "indexed": true,
          "internalType": "address",
          "name": "user",
          "type": "address"
        },
        {
          "indexed": true,
          "internalType": "address",
          "name": "newAddress",
          "type": "address"
        }
      ],
      "name": "SetDevAddress",
      "type": "event"
    },
    {
      "anonymous": false,
      "inputs": [
        {
          "indexed": true,
          "internalType": "address",
          "name": "user",
          "type": "address"
        },
        {
          "indexed": true,
          "internalType": "address",
          "name": "newAddress",
          "type": "address"
        }
      ],
      "name": "SetFeeAddress",
      "type": "event"
    },
    {
      "anonymous": false,
      "inputs": [
        {
          "indexed": true,
          "internalType": "address",
          "name": "user",
          "type": "address"
        },
        {
          "indexed": false,
          "internalType": "uint256",
          "name": "partsPerBlock",
          "type": "uint256"
        }
      ],
      "name": "UpdateEmissionRate",
      "type": "event"
    },
    {
      "anonymous": false,
      "inputs": [
        {
          "indexed": true,
          "internalType": "address",
          "name": "user",
          "type": "address"
        },
        {
          "indexed": true,
          "internalType": "uint256",
          "name": "pid",
          "type": "uint256"
        },
        {
          "indexed": false,
          "internalType": "uint256",
          "name": "amount",
          "type": "uint256"
        }
      ],
      "name": "Withdraw",
      "type": "event"
    },
    {
      "inputs": [],
      "name": "BONUS_MULTIPLIER",
      "outputs": [
        {
          "internalType": "uint256",
          "name": "",
          "type": "uint256"
        }
      ],
      "stateMutability": "view",
      "type": "function"
    },
    {
      "inputs": [
        {
          "internalType": "uint256",
          "name": "_allocPoint",
          "type": "uint256"
        },
        {
          "internalType": "contract IBEP20",
          "name": "_lpToken",
          "type": "address"
        },
        {
          "internalType": "uint16",
          "name": "_depositFeeBP",
          "type": "uint16"
        },
        {
          "internalType": "bool",
          "name": "_withUpdate",
          "type": "bool"
        }
      ],
      "name": "add",
      "outputs": [],
      "stateMutability": "nonpayable",
      "type": "function"
    },
    {
      "inputs": [
        {
          "internalType": "uint256",
          "name": "_pid",
          "type": "uint256"
        },
        {
          "internalType": "uint256",
          "name": "_amount",
          "type": "uint256"
        }
      ],
      "name": "deposit",
      "outputs": [],
      "stateMutability": "nonpayable",
      "type": "function"
    },
    {
      "inputs": [
        {
          "internalType": "address",
          "name": "_devaddr",
          "type": "address"
        }
      ],
      "name": "dev",
      "outputs": [],
      "stateMutability": "nonpayable",
      "type": "function"
    },
    {
      "inputs": [],
      "name": "devaddr",
      "outputs": [
        {
          "internalType": "address",
          "name": "",
          "type": "address"
        }
      ],
      "stateMutability": "view",
      "type": "function"
    },
    {
      "inputs": [
        {
          "internalType": "uint256",
          "name": "_pid",
          "type": "uint256"
        }
      ],
      "name": "emergencyWithdraw",
      "outputs": [],
      "stateMutability": "nonpayable",
      "type": "function"
    },
    {
      "inputs": [],
      "name": "feeAddress",
      "outputs": [
        {
          "internalType": "address",
          "name": "",
          "type": "address"
        }
      ],
      "stateMutability": "view",
      "type": "function"
    },
    {
      "inputs": [
        {
          "internalType": "uint256",
          "name": "_from",
          "type": "uint256"
        },
        {
          "internalType": "uint256",
          "name": "_to",
          "type": "uint256"
        }
      ],
      "name": "getMultiplier",
      "outputs": [
        {
          "internalType": "uint256",
          "name": "",
          "type": "uint256"
        }
      ],
      "stateMutability": "pure",
      "type": "function"
    },
    {
      "inputs": [],
      "name": "massUpdatePools",
      "outputs": [],
      "stateMutability": "nonpayable",
      "type": "function"
    },
    {
      "inputs": [],
      "name": "owner",
      "outputs": [
        {
          "internalType": "address",
          "name": "",
          "type": "address"
        }
      ],
      "stateMutability": "view",
      "type": "function"
    },
    {
      "inputs": [],
      "name": "parts",
      "outputs": [
        {
          "internalType": "contract PartsToken",
          "name": "",
          "type": "address"
        }
      ],
      "stateMutability": "view",
      "type": "function"
    },
    {
      "inputs": [],
      "name": "partsPerBlock",
      "outputs": [
        {
          "internalType": "uint256",
          "name": "",
          "type": "uint256"
        }
      ],
      "stateMutability": "view",
      "type": "function"
    },
    {
      "inputs": [
        {
          "internalType": "uint256",
          "name": "_pid",
          "type": "uint256"
        },
        {
          "internalType": "address",
          "name": "_user",
          "type": "address"
        }
      ],
      "name": "pendingParts",
      "outputs": [
        {
          "internalType": "uint256",
          "name": "",
          "type": "uint256"
        }
      ],
      "stateMutability": "view",
      "type": "function"
    },
    {
      "inputs": [
        {
          "internalType": "contract IBEP20",
          "name": "",
          "type": "address"
        }
      ],
      "name": "poolExistence",
      "outputs": [
        {
          "internalType": "bool",
          "name": "",
          "type": "bool"
        }
      ],
      "stateMutability": "view",
      "type": "function"
    },
    {
      "inputs": [
        {
          "internalType": "uint256",
          "name": "",
          "type": "uint256"
        }
      ],
      "name": "poolInfo",
      "outputs": [
        {
          "internalType": "contract IBEP20",
          "name": "lpToken",
          "type": "address"
        },
        {
          "internalType": "uint256",
          "name": "allocPoint",
          "type": "uint256"
        },
        {
          "internalType": "uint256",
          "name": "lastRewardBlock",
          "type": "uint256"
        },
        {
          "internalType": "uint256",
          "name": "accPartsPerShare",
          "type": "uint256"
        },
        {
          "internalType": "uint16",
          "name": "depositFeeBP",
          "type": "uint16"
        }
      ],
      "stateMutability": "view",
      "type": "function"
    },
    {
      "inputs": [],
      "name": "poolLength",
      "outputs": [
        {
          "internalType": "uint256",
          "name": "",
          "type": "uint256"
        }
      ],
      "stateMutability": "view",
      "type": "function"
    },
    {
      "inputs": [],
      "name": "renounceOwnership",
      "outputs": [],
      "stateMutability": "nonpayable",
      "type": "function"
    },
    {
      "inputs": [
        {
          "internalType": "uint256",
          "name": "_pid",
          "type": "uint256"
        },
        {
          "internalType": "uint256",
          "name": "_allocPoint",
          "type": "uint256"
        },
        {
          "internalType": "uint16",
          "name": "_depositFeeBP",
          "type": "uint16"
        },
        {
          "internalType": "bool",
          "name": "_withUpdate",
          "type": "bool"
        }
      ],
      "name": "set",
      "outputs": [],
      "stateMutability": "nonpayable",
      "type": "function"
    },
    {
      "inputs": [
        {
          "internalType": "address",
          "name": "_feeAddress",
          "type": "address"
        }
      ],
      "name": "setFeeAddress",
      "outputs": [],
      "stateMutability": "nonpayable",
      "type": "function"
    },
    {
      "inputs": [],
      "name": "startBlock",
      "outputs": [
        {
          "internalType": "uint256",
          "name": "",
          "type": "uint256"
        }
      ],
      "stateMutability": "view",
      "type": "function"
    },
    {
      "inputs": [],
      "name": "totalAllocPoint",
      "outputs": [
        {
          "internalType": "uint256",
          "name": "",
          "type": "uint256"
        }
      ],
      "stateMutability": "view",
      "type": "function"
    },
    {
      "inputs": [
        {
          "internalType": "address",
          "name": "newOwner",
          "type": "address"
        }
      ],
      "name": "transferOwnership",
      "outputs": [],
      "stateMutability": "nonpayable",
      "type": "function"
    },
    {
      "inputs": [
        {
          "internalType": "uint256",
          "name": "_partsPerBlock",
          "type": "uint256"
        }
      ],
      "name": "updateEmissionRate",
      "outputs": [],
      "stateMutability": "nonpayable",
      "type": "function"
    },
    {
      "inputs": [
        {
          "internalType": "uint256",
          "name": "_pid",
          "type": "uint256"
        }
      ],
      "name": "updatePool",
      "outputs": [],
      "stateMutability": "nonpayable",
      "type": "function"
    },
    {
      "inputs": [
        {
          "internalType": "uint256",
          "name": "",
          "type": "uint256"
        },
        {
          "internalType": "address",
          "name": "",
          "type": "address"
        }
      ],
      "name": "userInfo",
      "outputs": [
        {
          "internalType": "uint256",
          "name": "amount",
          "type": "uint256"
        },
        {
          "internalType": "uint256",
          "name": "rewardDebt",
          "type": "uint256"
        }
      ],
      "stateMutability": "view",
      "type": "function"
    },
    {
      "inputs": [
        {
          "internalType": "uint256",
          "name": "_pid",
          "type": "uint256"
        },
        {
          "internalType": "uint256",
          "name": "_amount",
          "type": "uint256"
        }
      ],
      "name": "withdraw",
      "outputs": [],
      "stateMutability": "nonpayable",
      "type": "function"
    }
  ],
  "transactionHash": "0x89d0a458e1423f4cdcea4a33b2625da2c617d2ade50a4eda233425f0e3b87c2b",
  "args": [
    "0x9EE52D858a9998DE4AFd437E724861B8714FeFB8",
    "0x0584AAd825Ee360376493643Ae35C29Bf28F2edc",
    "0x0584AAd825Ee360376493643Ae35C29Bf28F2edc",
    "1000000000000000000000",
    "0"
  ],
  "solcInputHash": "2ee6087faf722921a373bd9eca6ff889",
  "bytecode": "0x6080604052600060085534801561001557600080fd5b50604051611ecf380380611ecf833981810160405260a081101561003857600080fd5b5080516020820151604083015160608401516080909401519293919290919060006100616100fb565b600080546001600160a01b0319166001600160a01b0383169081178255604051929350917f8be0079c531659141344cd1fd0a4f28419497f9722a3daafe3b4186f6b6457e0908290a35060018055600280546001600160a01b03199081166001600160a01b0397881617909155600380548216958716959095179094556005805490941692909416919091179091556004556009556100ff565b3390565b611dc18061010e6000396000f3fe608060405234801561001057600080fd5b506004361061018e5760003560e01c80638705fcd4116100de57806393f1a40b11610097578063d49e77cd11610071578063d49e77cd1461043b578063d963842214610443578063e2bbb15814610478578063f2fde38b1461049b5761018e565b806393f1a40b146103b4578063b47e9c79146103f9578063cbd258b5146104015761018e565b80638705fcd41461032d57806387607db9146103535780638aa285501461035b5780638d88a90e146103635780638da5cb5b146103895780638dbb1e3a146103915761018e565b8063441a3e701161014b5780635312ea8e116101255780635312ea8e146102c2578063630b5ba1146102df578063715018a6146102e757806384e82a33146102ef5761018e565b8063441a3e701461027a57806348cd4cb11461029d57806351eb05a6146102a55761018e565b8063081e3eda146101935780630ba84cd2146101ad5780631526fe27146101cc57806317caf6f1146102225780631d198c661461022a5780634127535814610256575b600080fd5b61019b6104c1565b60408051918252519081900360200190f35b6101ca600480360360208110156101c357600080fd5b50356104c7565b005b6101e9600480360360208110156101e257600080fd5b5035610565565b604080516001600160a01b039096168652602086019490945284840192909252606084015261ffff166080830152519081900360a00190f35b61019b6105b1565b61019b6004803603604081101561024057600080fd5b50803590602001356001600160a01b03166105b7565b61025e610729565b604080516001600160a01b039092168252519081900360200190f35b6101ca6004803603604081101561029057600080fd5b5080359060200135610738565b61019b6108ef565b6101ca600480360360208110156102bb57600080fd5b50356108f5565b6101ca600480360360208110156102d857600080fd5b5035610b25565b6101ca610c25565b6101ca610c48565b6101ca6004803603608081101561030557600080fd5b508035906001600160a01b036020820135169061ffff60408201351690606001351515610cea565b6101ca6004803603602081101561034357600080fd5b50356001600160a01b0316610f76565b61019b611021565b61019b611027565b6101ca6004803603602081101561037957600080fd5b50356001600160a01b031661102c565b61025e6110c3565b61019b600480360360408110156103a757600080fd5b50803590602001356110d2565b6103e0600480360360408110156103ca57600080fd5b50803590602001356001600160a01b03166110ea565b6040805192835260208301919091528051918290030190f35b61025e61110e565b6104276004803603602081101561041757600080fd5b50356001600160a01b031661111d565b604080519115158252519081900360200190f35b61025e611132565b6101ca6004803603608081101561045957600080fd5b5080359060208101359061ffff60408201351690606001351515611141565b6101ca6004803603604081101561048e57600080fd5b5080359060200135611291565b6101ca600480360360208110156104b157600080fd5b50356001600160a01b031661146d565b60065490565b6104cf611565565b6000546001600160a01b0390811691161461051f576040805162461bcd60e51b81526020600482018190526024820152600080516020611d4a833981519152604482015290519081900360640190fd5b610527610c25565b600481905560408051828152905133917fe2492e003bbe8afa53088b406f0c1cb5d9e280370fc72a74cf116ffd343c4053919081900360200190a250565b6006818154811061057257fe5b6000918252602090912060059091020180546001820154600283015460038401546004909401546001600160a01b0390931694509092909161ffff1685565b60085481565b600080600684815481106105c757fe5b600091825260208083208784526007825260408085206001600160a01b0389811687529084528186206005959095029092016003810154815483516370a0823160e01b815230600482015293519298509596909590949316926370a082319260248082019391829003018186803b15801561064157600080fd5b505afa158015610655573d6000803e3d6000fd5b505050506040513d602081101561066b57600080fd5b505160028501549091504311801561068257508015155b156106ee5760006106978560020154436110d2565b905060006106ca6008546106c488600101546106be6004548761156990919063ffffffff16565b90611569565b906115c2565b90506106e96106e2846106c48464e8d4a51000611569565b8590611604565b935050505b61071c836001015461071664e8d4a510006106c486886000015461156990919063ffffffff16565b9061165e565b9450505050505b92915050565b6005546001600160a01b031681565b60026001541415610790576040805162461bcd60e51b815260206004820152601f60248201527f5265656e7472616e637947756172643a207265656e7472616e742063616c6c00604482015290519081900360640190fd5b60026001819055506000600683815481106107a757fe5b60009182526020808320868452600782526040808520338652909252922080546005909202909201925083111561081a576040805162461bcd60e51b81526020600482015260126024820152711dda5d1a191c985dce881b9bdd0819dbdbd960721b604482015290519081900360640190fd5b610823846108f5565b6000610851826001015461071664e8d4a510006106c48760030154876000015461156990919063ffffffff16565b905080156108635761086333826116a0565b831561088d578154610875908561165e565b8255825461088d906001600160a01b03163386611873565b600383015482546108a89164e8d4a51000916106c491611569565b6001830155604080518581529051869133917ff279e6a1f5e320cca91135676d9cb6e44ca8a08c0b88342bcdb1144f6511b5689181900360200190a3505060018055505050565b60095481565b60006006828154811061090457fe5b90600052602060002090600502019050806002015443116109255750610b22565b8054604080516370a0823160e01b815230600482015290516000926001600160a01b0316916370a08231916024808301926020929190829003018186803b15801561096f57600080fd5b505afa158015610983573d6000803e3d6000fd5b505050506040513d602081101561099957600080fd5b505190508015806109ac57506001820154155b156109be575043600290910155610b22565b60006109ce8360020154436110d2565b905060006109f56008546106c486600101546106be6004548761156990919063ffffffff16565b6002546003549192506001600160a01b03908116916340c10f199116610a1c84600a6115c2565b6040518363ffffffff1660e01b815260040180836001600160a01b0316815260200182815260200192505050600060405180830381600087803b158015610a6257600080fd5b505af1158015610a76573d6000803e3d6000fd5b5050600254604080516340c10f1960e01b81523060048201526024810186905290516001600160a01b0390921693506340c10f19925060448082019260009290919082900301818387803b158015610acd57600080fd5b505af1158015610ae1573d6000803e3d6000fd5b50505050610b0f610b04846106c464e8d4a510008561156990919063ffffffff16565b600386015490611604565b6003850155505043600290920191909155505b50565b60026001541415610b7d576040805162461bcd60e51b815260206004820152601f60248201527f5265656e7472616e637947756172643a207265656e7472616e742063616c6c00604482015290519081900360640190fd5b6002600181905550600060068281548110610b9457fe5b600091825260208083208584526007825260408085203380875293528420805485825560018201959095556005909302018054909450919291610be4916001600160a01b03919091169083611873565b604080518281529051859133917fbb757047c2b5f3974fe26b7c10f732e7bce710b0952a71082702781e62ae05959181900360200190a35050600180555050565b60065460005b81811015610c4457610c3c816108f5565b600101610c2b565b5050565b610c50611565565b6000546001600160a01b03908116911614610ca0576040805162461bcd60e51b81526020600482018190526024820152600080516020611d4a833981519152604482015290519081900360640190fd5b600080546040516001600160a01b03909116907f8be0079c531659141344cd1fd0a4f28419497f9722a3daafe3b4186f6b6457e0908390a3600080546001600160a01b0319169055565b610cf2611565565b6000546001600160a01b03908116911614610d42576040805162461bcd60e51b81526020600482018190526024820152600080516020611d4a833981519152604482015290519081900360640190fd5b6001600160a01b0383166000908152600a6020526040902054839060ff1615610db2576040805162461bcd60e51b815260206004820152601960248201527f6e6f6e4475706c6963617465643a206475706c69636174656400000000000000604482015290519081900360640190fd5b6127108361ffff161115610df75760405162461bcd60e51b8152600401808060200182810382526025815260200180611c8f6025913960400191505060405180910390fd5b8115610e0557610e05610c25565b60006009544311610e1857600954610e1a565b435b600854909150610e2a9087611604565b6008556001600160a01b039485166000818152600a602090815260408083208054600160ff199091168117909155815160a081018352948552918401998a5283019384526060830182815261ffff9788166080850190815260068054938401815590935292517ff652222313e28459528d920b65115c16c04f3efc82aaedc97be59f3f377c0d3f600590920291820180546001600160a01b031916919099161790975596517ff652222313e28459528d920b65115c16c04f3efc82aaedc97be59f3f377c0d4087015590517ff652222313e28459528d920b65115c16c04f3efc82aaedc97be59f3f377c0d41860155517ff652222313e28459528d920b65115c16c04f3efc82aaedc97be59f3f377c0d42850155505091517ff652222313e28459528d920b65115c16c04f3efc82aaedc97be59f3f377c0d43909101805461ffff191691909216179055565b6005546001600160a01b03163314610fd5576040805162461bcd60e51b815260206004820152601860248201527f736574466565416464726573733a20464f5242494444454e0000000000000000604482015290519081900360640190fd5b600580546001600160a01b0319166001600160a01b03831690811790915560405133907fd44190acf9d04bdb5d3a1aafff7e6dee8b40b93dfb8c5d3f0eea4b9f4539c3f790600090a350565b60045481565b600181565b6003546001600160a01b03163314611077576040805162461bcd60e51b81526020600482015260096024820152686465763a207775743f60b81b604482015290519081900360640190fd5b600380546001600160a01b0319166001600160a01b03831690811790915560405133907f618c54559e94f1499a808aad71ee8729f8e74e8c48e979616328ce493a1a52e790600090a350565b6000546001600160a01b031690565b60006110e360016106be848661165e565b9392505050565b60076020908152600092835260408084209091529082529020805460019091015482565b6002546001600160a01b031681565b600a6020526000908152604090205460ff1681565b6003546001600160a01b031681565b611149611565565b6000546001600160a01b03908116911614611199576040805162461bcd60e51b81526020600482018190526024820152600080516020611d4a833981519152604482015290519081900360640190fd5b6127108261ffff1611156111de5760405162461bcd60e51b8152600401808060200182810382526025815260200180611d256025913960400191505060405180910390fd5b80156111ec576111ec610c25565b611229836112236006878154811061120057fe5b90600052602060002090600502016001015460085461165e90919063ffffffff16565b90611604565b600881905550826006858154811061123d57fe5b906000526020600020906005020160010181905550816006858154811061126057fe5b906000526020600020906005020160040160006101000a81548161ffff021916908361ffff16021790555050505050565b600260015414156112e9576040805162461bcd60e51b815260206004820152601f60248201527f5265656e7472616e637947756172643a207265656e7472616e742063616c6c00604482015290519081900360640190fd5b600260018190555060006006838154811061130057fe5b60009182526020808320868452600782526040808520338652909252922060059091029091019150611331846108f5565b80541561137a576000611366826001015461071664e8d4a510006106c48760030154876000015461156990919063ffffffff16565b905080156113785761137833826116a0565b505b821561140c578154611397906001600160a01b03163330866118ca565b600482015461ffff16156113fd5760048201546000906113c490612710906106c490879061ffff16611569565b60055484549192506113e3916001600160a01b03908116911683611873565b81546113f59082906107169087611604565b82555061140c565b80546114099084611604565b81555b600382015481546114279164e8d4a51000916106c491611569565b6001820155604080518481529051859133917f90890809c654f11d6e72a28fa60149770a0d11ec6c92319d6ceb2bb0a4ea1a159181900360200190a35050600180555050565b611475611565565b6000546001600160a01b039081169116146114c5576040805162461bcd60e51b81526020600482018190526024820152600080516020611d4a833981519152604482015290519081900360640190fd5b6001600160a01b03811661150a5760405162461bcd60e51b8152600401808060200182810382526026815260200180611cde6026913960400191505060405180910390fd5b600080546040516001600160a01b03808516939216917f8be0079c531659141344cd1fd0a4f28419497f9722a3daafe3b4186f6b6457e091a3600080546001600160a01b0319166001600160a01b0392909216919091179055565b3390565b60008261157857506000610723565b8282028284828161158557fe5b04146110e35760405162461bcd60e51b8152600401808060200182810382526021815260200180611d046021913960400191505060405180910390fd5b60006110e383836040518060400160405280601a81526020017f536166654d6174683a206469766973696f6e206279207a65726f000000000000815250611924565b6000828201838110156110e3576040805162461bcd60e51b815260206004820152601b60248201527f536166654d6174683a206164646974696f6e206f766572666c6f770000000000604482015290519081900360640190fd5b60006110e383836040518060400160405280601e81526020017f536166654d6174683a207375627472616374696f6e206f766572666c6f7700008152506119c6565b600254604080516370a0823160e01b815230600482015290516000926001600160a01b0316916370a08231916024808301926020929190829003018186803b1580156116eb57600080fd5b505afa1580156116ff573d6000803e3d6000fd5b505050506040513d602081101561171557600080fd5b505190506000818311156117ac576002546040805163a9059cbb60e01b81526001600160a01b038781166004830152602482018690529151919092169163a9059cbb9160448083019260209291908290030181600087803b15801561177957600080fd5b505af115801561178d573d6000803e3d6000fd5b505050506040513d60208110156117a357600080fd5b50519050611831565b6002546040805163a9059cbb60e01b81526001600160a01b038781166004830152602482018790529151919092169163a9059cbb9160448083019260209291908290030181600087803b15801561180257600080fd5b505af1158015611816573d6000803e3d6000fd5b505050506040513d602081101561182c57600080fd5b505190505b8061186d5760405162461bcd60e51b8152600401808060200182810382526022815260200180611d6a6022913960400191505060405180910390fd5b50505050565b604080516001600160a01b038416602482015260448082018490528251808303909101815260649091019091526020810180516001600160e01b031663a9059cbb60e01b1790526118c5908490611a20565b505050565b604080516001600160a01b0380861660248301528416604482015260648082018490528251808303909101815260849091019091526020810180516001600160e01b03166323b872dd60e01b17905261186d908590611a20565b600081836119b05760405162461bcd60e51b81526004018080602001828103825283818151815260200191508051906020019080838360005b8381101561197557818101518382015260200161195d565b50505050905090810190601f1680156119a25780820380516001836020036101000a031916815260200191505b509250505060405180910390fd5b5060008385816119bc57fe5b0495945050505050565b60008184841115611a185760405162461bcd60e51b815260206004820181815283516024840152835190928392604490910191908501908083836000831561197557818101518382015260200161195d565b505050900390565b6060611a75826040518060400160405280602081526020017f5361666542455032303a206c6f772d6c6576656c2063616c6c206661696c6564815250856001600160a01b0316611ad19092919063ffffffff16565b8051909150156118c557808060200190516020811015611a9457600080fd5b50516118c55760405162461bcd60e51b815260040180806020018281038252602a815260200180611cb4602a913960400191505060405180910390fd5b6060611ae08484600085611ae8565b949350505050565b6060611af385611c55565b611b44576040805162461bcd60e51b815260206004820152601d60248201527f416464726573733a2063616c6c20746f206e6f6e2d636f6e7472616374000000604482015290519081900360640190fd5b60006060866001600160a01b031685876040518082805190602001908083835b60208310611b835780518252601f199092019160209182019101611b64565b6001836020036101000a03801982511681845116808217855250505050505090500191505060006040518083038185875af1925050503d8060008114611be5576040519150601f19603f3d011682016040523d82523d6000602084013e611bea565b606091505b50915091508115611bfe579150611ae09050565b805115611c0e5780518082602001fd5b60405162461bcd60e51b815260206004820181815286516024840152865187939192839260440191908501908083836000831561197557818101518382015260200161195d565b6000813f7fc5d2460186f7233c927e7db2dcc703c0e500b653ca82273b7bfad8045d85a470818114801590611ae057505015159291505056fe6164643a20696e76616c6964206465706f7369742066656520626173697320706f696e74735361666542455032303a204245503230206f7065726174696f6e20646964206e6f7420737563636565644f776e61626c653a206e6577206f776e657220697320746865207a65726f2061646472657373536166654d6174683a206d756c7469706c69636174696f6e206f766572666c6f777365743a20696e76616c6964206465706f7369742066656520626173697320706f696e74734f776e61626c653a2063616c6c6572206973206e6f7420746865206f776e65727361666550617274735472616e736665723a207472616e73666572206661696c6564a2646970667358221220073af32ed9f9be7b0e2a1098804a63b35bce57c35d11a9217c0fa7e49daf66ee64736f6c634300060c0033",
  "devdoc": {
    "kind": "dev",
    "methods": {
      "owner()": {
        "details": "Returns the address of the current owner."
      },
      "renounceOwnership()": {
        "details": "Leaves the contract without owner. It will not be possible to call `onlyOwner` functions anymore. Can only be called by the current owner. NOTE: Renouncing ownership will leave the contract without an owner, thereby removing any functionality that is only available to the owner."
      },
      "transferOwnership(address)": {
        "details": "Transfers ownership of the contract to a new account (`newOwner`). Can only be called by the current owner."
      }
    },
    "version": 1
  },
  "userdoc": {
    "kind": "user",
    "methods": {},
    "version": 1
  },
  "storageLayout": {
    "storage": [
      {
        "astId": 1358,
        "contract": "contracts/MasterChef.sol:MasterChef",
        "label": "_owner",
        "offset": 0,
        "slot": "0",
        "type": "t_address"
      },
      {
        "astId": 3063,
        "contract": "contracts/MasterChef.sol:MasterChef",
        "label": "_status",
        "offset": 0,
        "slot": "1",
        "type": "t_uint256"
      },
      {
        "astId": 3128,
        "contract": "contracts/MasterChef.sol:MasterChef",
        "label": "parts",
        "offset": 0,
        "slot": "2",
        "type": "t_contract(PartsToken)6509"
      },
      {
        "astId": 3130,
        "contract": "contracts/MasterChef.sol:MasterChef",
        "label": "devaddr",
        "offset": 0,
        "slot": "3",
        "type": "t_address"
      },
      {
        "astId": 3132,
        "contract": "contracts/MasterChef.sol:MasterChef",
        "label": "partsPerBlock",
        "offset": 0,
        "slot": "4",
        "type": "t_uint256"
      },
      {
        "astId": 3137,
        "contract": "contracts/MasterChef.sol:MasterChef",
        "label": "feeAddress",
        "offset": 0,
        "slot": "5",
        "type": "t_address"
      },
      {
        "astId": 3140,
        "contract": "contracts/MasterChef.sol:MasterChef",
        "label": "poolInfo",
        "offset": 0,
        "slot": "6",
        "type": "t_array(t_struct(PoolInfo)3126_storage)dyn_storage"
      },
      {
        "astId": 3146,
        "contract": "contracts/MasterChef.sol:MasterChef",
        "label": "userInfo",
        "offset": 0,
        "slot": "7",
        "type": "t_mapping(t_uint256,t_mapping(t_address,t_struct(UserInfo)3115_storage))"
      },
      {
        "astId": 3149,
        "contract": "contracts/MasterChef.sol:MasterChef",
        "label": "totalAllocPoint",
        "offset": 0,
        "slot": "8",
        "type": "t_uint256"
      },
      {
        "astId": 3151,
        "contract": "contracts/MasterChef.sol:MasterChef",
        "label": "startBlock",
        "offset": 0,
        "slot": "9",
        "type": "t_uint256"
      },
      {
        "astId": 3240,
        "contract": "contracts/MasterChef.sol:MasterChef",
        "label": "poolExistence",
        "offset": 0,
        "slot": "10",
        "type": "t_mapping(t_contract(IBEP20)7823,t_bool)"
      }
    ],
    "types": {
      "t_address": {
        "encoding": "inplace",
        "label": "address",
        "numberOfBytes": "20"
      },
      "t_array(t_struct(PoolInfo)3126_storage)dyn_storage": {
        "base": "t_struct(PoolInfo)3126_storage",
        "encoding": "dynamic_array",
        "label": "struct MasterChef.PoolInfo[]",
        "numberOfBytes": "32"
      },
      "t_bool": {
        "encoding": "inplace",
        "label": "bool",
        "numberOfBytes": "1"
      },
      "t_contract(IBEP20)7823": {
        "encoding": "inplace",
        "label": "contract IBEP20",
        "numberOfBytes": "20"
      },
      "t_contract(PartsToken)6509": {
        "encoding": "inplace",
        "label": "contract PartsToken",
        "numberOfBytes": "20"
      },
      "t_mapping(t_address,t_struct(UserInfo)3115_storage)": {
        "encoding": "mapping",
        "key": "t_address",
        "label": "mapping(address => struct MasterChef.UserInfo)",
        "numberOfBytes": "32",
        "value": "t_struct(UserInfo)3115_storage"
      },
      "t_mapping(t_contract(IBEP20)7823,t_bool)": {
        "encoding": "mapping",
        "key": "t_contract(IBEP20)7823",
        "label": "mapping(contract IBEP20 => bool)",
        "numberOfBytes": "32",
        "value": "t_bool"
      },
      "t_mapping(t_uint256,t_mapping(t_address,t_struct(UserInfo)3115_storage))": {
        "encoding": "mapping",
        "key": "t_uint256",
        "label": "mapping(uint256 => mapping(address => struct MasterChef.UserInfo))",
        "numberOfBytes": "32",
        "value": "t_mapping(t_address,t_struct(UserInfo)3115_storage)"
      },
      "t_struct(PoolInfo)3126_storage": {
        "encoding": "inplace",
        "label": "struct MasterChef.PoolInfo",
        "members": [
          {
            "astId": 3117,
            "contract": "contracts/MasterChef.sol:MasterChef",
            "label": "lpToken",
            "offset": 0,
            "slot": "0",
            "type": "t_contract(IBEP20)7823"
          },
          {
            "astId": 3119,
            "contract": "contracts/MasterChef.sol:MasterChef",
            "label": "allocPoint",
            "offset": 0,
            "slot": "1",
            "type": "t_uint256"
          },
          {
            "astId": 3121,
            "contract": "contracts/MasterChef.sol:MasterChef",
            "label": "lastRewardBlock",
            "offset": 0,
            "slot": "2",
            "type": "t_uint256"
          },
          {
            "astId": 3123,
            "contract": "contracts/MasterChef.sol:MasterChef",
            "label": "accPartsPerShare",
            "offset": 0,
            "slot": "3",
            "type": "t_uint256"
          },
          {
            "astId": 3125,
            "contract": "contracts/MasterChef.sol:MasterChef",
            "label": "depositFeeBP",
            "offset": 0,
            "slot": "4",
            "type": "t_uint16"
          }
        ],
        "numberOfBytes": "160"
      },
      "t_struct(UserInfo)3115_storage": {
        "encoding": "inplace",
        "label": "struct MasterChef.UserInfo",
        "members": [
          {
            "astId": 3112,
            "contract": "contracts/MasterChef.sol:MasterChef",
            "label": "amount",
            "offset": 0,
            "slot": "0",
            "type": "t_uint256"
          },
          {
            "astId": 3114,
            "contract": "contracts/MasterChef.sol:MasterChef",
            "label": "rewardDebt",
            "offset": 0,
            "slot": "1",
            "type": "t_uint256"
          }
        ],
        "numberOfBytes": "64"
      },
      "t_uint16": {
        "encoding": "inplace",
        "label": "uint16",
        "numberOfBytes": "2"
      },
      "t_uint256": {
        "encoding": "inplace",
        "label": "uint256",
        "numberOfBytes": "32"
      }
    }
  }
}