{
  "address": "0x44aC02B81e32D8AEc7ff784CC278e09cE4133D41",
  "abi": [
    {
      "inputs": [
        {
          "internalType": "contract MockToken",
          "name": "_sushi",
          "type": "address"
        },
        {
          "internalType": "address",
          "name": "_devaddr",
          "type": "address"
        },
        {
          "internalType": "uint256",
          "name": "_sushiPerBlock",
          "type": "uint256"
        },
        {
          "internalType": "uint256",
          "name": "_startBlock",
          "type": "uint256"
        },
        {
          "internalType": "uint256",
          "name": "_bonusEndBlock",
          "type": "uint256"
        }
      ],
      "stateMutability": "nonpayable",
      "type": "constructor"
    },
    {
      "anonymous": false,
      "inputs": [
        {
          "indexed": true,
          "internalType": "address",
          "name": "user",
          "type": "address"
        },
        {
          "indexed": true,
          "internalType": "uint256",
          "name": "pid",
          "type": "uint256"
        },
        {
          "indexed": false,
          "internalType": "uint256",
          "name": "amount",
          "type": "uint256"
        }
      ],
      "name": "Deposit",
      "type": "event"
    },
    {
      "anonymous": false,
      "inputs": [
        {
          "indexed": true,
          "internalType": "address",
          "name": "user",
          "type": "address"
        },
        {
          "indexed": true,
          "internalType": "uint256",
          "name": "pid",
          "type": "uint256"
        },
        {
          "indexed": false,
          "internalType": "uint256",
          "name": "amount",
          "type": "uint256"
        }
      ],
      "name": "EmergencyWithdraw",
      "type": "event"
    },
    {
      "anonymous": false,
      "inputs": [
        {
          "indexed": true,
          "internalType": "address",
          "name": "previousOwner",
          "type": "address"
        },
        {
          "indexed": true,
          "internalType": "address",
          "name": "newOwner",
          "type": "address"
        }
      ],
      "name": "OwnershipTransferred",
      "type": "event"
    },
    {
      "anonymous": false,
      "inputs": [
        {
          "indexed": true,
          "internalType": "address",
          "name": "user",
          "type": "address"
        },
        {
          "indexed": true,
          "internalType": "uint256",
          "name": "pid",
          "type": "uint256"
        },
        {
          "indexed": false,
          "internalType": "uint256",
          "name": "amount",
          "type": "uint256"
        }
      ],
      "name": "Withdraw",
      "type": "event"
    },
    {
      "inputs": [],
      "name": "BONUS_MULTIPLIER",
      "outputs": [
        {
          "internalType": "uint256",
          "name": "",
          "type": "uint256"
        }
      ],
      "stateMutability": "view",
      "type": "function"
    },
    {
      "inputs": [
        {
          "internalType": "uint256",
          "name": "_allocPoint",
          "type": "uint256"
        },
        {
          "internalType": "contract IERC20",
          "name": "_lpToken",
          "type": "address"
        },
        {
          "internalType": "bool",
          "name": "_withUpdate",
          "type": "bool"
        }
      ],
      "name": "add",
      "outputs": [],
      "stateMutability": "nonpayable",
      "type": "function"
    },
    {
      "inputs": [],
      "name": "bonusEndBlock",
      "outputs": [
        {
          "internalType": "uint256",
          "name": "",
          "type": "uint256"
        }
      ],
      "stateMutability": "view",
      "type": "function"
    },
    {
      "inputs": [
        {
          "internalType": "uint256",
          "name": "_pid",
          "type": "uint256"
        },
        {
          "internalType": "uint256",
          "name": "_amount",
          "type": "uint256"
        }
      ],
      "name": "deposit",
      "outputs": [],
      "stateMutability": "nonpayable",
      "type": "function"
    },
    {
      "inputs": [
        {
          "internalType": "address",
          "name": "_devaddr",
          "type": "address"
        }
      ],
      "name": "dev",
      "outputs": [],
      "stateMutability": "nonpayable",
      "type": "function"
    },
    {
      "inputs": [],
      "name": "devaddr",
      "outputs": [
        {
          "internalType": "address",
          "name": "",
          "type": "address"
        }
      ],
      "stateMutability": "view",
      "type": "function"
    },
    {
      "inputs": [
        {
          "internalType": "uint256",
          "name": "_pid",
          "type": "uint256"
        }
      ],
      "name": "emergencyWithdraw",
      "outputs": [],
      "stateMutability": "nonpayable",
      "type": "function"
    },
    {
      "inputs": [
        {
          "internalType": "uint256",
          "name": "_from",
          "type": "uint256"
        },
        {
          "internalType": "uint256",
          "name": "_to",
          "type": "uint256"
        }
      ],
      "name": "getMultiplier",
      "outputs": [
        {
          "internalType": "uint256",
          "name": "",
          "type": "uint256"
        }
      ],
      "stateMutability": "view",
      "type": "function"
    },
    {
      "inputs": [],
      "name": "massUpdatePools",
      "outputs": [],
      "stateMutability": "nonpayable",
      "type": "function"
    },
    {
      "inputs": [
        {
          "internalType": "uint256",
          "name": "_pid",
          "type": "uint256"
        }
      ],
      "name": "migrate",
      "outputs": [],
      "stateMutability": "nonpayable",
      "type": "function"
    },
    {
      "inputs": [],
      "name": "migrator",
      "outputs": [
        {
          "internalType": "contract IMigratorChef",
          "name": "",
          "type": "address"
        }
      ],
      "stateMutability": "view",
      "type": "function"
    },
    {
      "inputs": [],
      "name": "owner",
      "outputs": [
        {
          "internalType": "address",
          "name": "",
          "type": "address"
        }
      ],
      "stateMutability": "view",
      "type": "function"
    },
    {
      "inputs": [
        {
          "internalType": "uint256",
          "name": "_pid",
          "type": "uint256"
        },
        {
          "internalType": "address",
          "name": "_user",
          "type": "address"
        }
      ],
      "name": "pendingSushi",
      "outputs": [
        {
          "internalType": "uint256",
          "name": "",
          "type": "uint256"
        }
      ],
      "stateMutability": "view",
      "type": "function"
    },
    {
      "inputs": [
        {
          "internalType": "uint256",
          "name": "",
          "type": "uint256"
        }
      ],
      "name": "poolInfo",
      "outputs": [
        {
          "internalType": "contract IERC20",
          "name": "lpToken",
          "type": "address"
        },
        {
          "internalType": "uint256",
          "name": "allocPoint",
          "type": "uint256"
        },
        {
          "internalType": "uint256",
          "name": "lastRewardBlock",
          "type": "uint256"
        },
        {
          "internalType": "uint256",
          "name": "accSushiPerShare",
          "type": "uint256"
        }
      ],
      "stateMutability": "view",
      "type": "function"
    },
    {
      "inputs": [],
      "name": "poolLength",
      "outputs": [
        {
          "internalType": "uint256",
          "name": "",
          "type": "uint256"
        }
      ],
      "stateMutability": "view",
      "type": "function"
    },
    {
      "inputs": [],
      "name": "renounceOwnership",
      "outputs": [],
      "stateMutability": "nonpayable",
      "type": "function"
    },
    {
      "inputs": [
        {
          "internalType": "uint256",
          "name": "_pid",
          "type": "uint256"
        },
        {
          "internalType": "uint256",
          "name": "_allocPoint",
          "type": "uint256"
        },
        {
          "internalType": "bool",
          "name": "_withUpdate",
          "type": "bool"
        }
      ],
      "name": "set",
      "outputs": [],
      "stateMutability": "nonpayable",
      "type": "function"
    },
    {
      "inputs": [
        {
          "internalType": "contract IMigratorChef",
          "name": "_migrator",
          "type": "address"
        }
      ],
      "name": "setMigrator",
      "outputs": [],
      "stateMutability": "nonpayable",
      "type": "function"
    },
    {
      "inputs": [],
      "name": "startBlock",
      "outputs": [
        {
          "internalType": "uint256",
          "name": "",
          "type": "uint256"
        }
      ],
      "stateMutability": "view",
      "type": "function"
    },
    {
      "inputs": [],
      "name": "sushi",
      "outputs": [
        {
          "internalType": "contract MockToken",
          "name": "",
          "type": "address"
        }
      ],
      "stateMutability": "view",
      "type": "function"
    },
    {
      "inputs": [],
      "name": "sushiPerBlock",
      "outputs": [
        {
          "internalType": "uint256",
          "name": "",
          "type": "uint256"
        }
      ],
      "stateMutability": "view",
      "type": "function"
    },
    {
      "inputs": [],
      "name": "totalAllocPoint",
      "outputs": [
        {
          "internalType": "uint256",
          "name": "",
          "type": "uint256"
        }
      ],
      "stateMutability": "view",
      "type": "function"
    },
    {
      "inputs": [
        {
          "internalType": "address",
          "name": "newOwner",
          "type": "address"
        }
      ],
      "name": "transferOwnership",
      "outputs": [],
      "stateMutability": "nonpayable",
      "type": "function"
    },
    {
      "inputs": [
        {
          "internalType": "uint256",
          "name": "_pid",
          "type": "uint256"
        }
      ],
      "name": "updatePool",
      "outputs": [],
      "stateMutability": "nonpayable",
      "type": "function"
    },
    {
      "inputs": [
        {
          "internalType": "uint256",
          "name": "",
          "type": "uint256"
        },
        {
          "internalType": "address",
          "name": "",
          "type": "address"
        }
      ],
      "name": "userInfo",
      "outputs": [
        {
          "internalType": "uint256",
          "name": "amount",
          "type": "uint256"
        },
        {
          "internalType": "uint256",
          "name": "rewardDebt",
          "type": "uint256"
        }
      ],
      "stateMutability": "view",
      "type": "function"
    },
    {
      "inputs": [
        {
          "internalType": "uint256",
          "name": "_pid",
          "type": "uint256"
        },
        {
          "internalType": "uint256",
          "name": "_amount",
          "type": "uint256"
        }
      ],
      "name": "withdraw",
      "outputs": [],
      "stateMutability": "nonpayable",
      "type": "function"
    }
  ],
  "transactionHash": "0x1f1443a28618e52cf0542d777721faee5669b4b7a42d28e53964421f2bcef769",
  "args": [
    "0x4dcEd797Bc4462222c19A1c99020423cB0b14A29",
    "0x0584AAd825Ee360376493643Ae35C29Bf28F2edc",
    "1000000000000000000000",
    "0",
    "0"
  ],
  "solcInputHash": "2ee6087faf722921a373bd9eca6ff889",
  "bytecode": "0x6080604052600060085534801561001557600080fd5b50604051611d61380380611d61833981810160405260a081101561003857600080fd5b5080516020820151604083015160608401516080909401519293919290919060006100616100e9565b600080546001600160a01b0319166001600160a01b0383169081178255604051929350917f8be0079c531659141344cd1fd0a4f28419497f9722a3daafe3b4186f6b6457e0908290a350600180546001600160a01b039687166001600160a01b03199182161790915560028054959096169416939093179093556004556003556009556100ed565b3390565b611c65806100fc6000396000f3fe608060405234801561001057600080fd5b506004361061018e5760003560e01c8063630b5ba1116100de5780638da5cb5b11610097578063b0bcf42a11610071578063b0bcf42a14610419578063d49e77cd14610421578063e2bbb15814610429578063f2fde38b1461044c5761018e565b80638da5cb5b146103a95780638dbb1e3a146103b157806393f1a40b146103d45761018e565b8063630b5ba11461033857806364482f7914610340578063715018a61461036b5780637cd07e47146103735780638aa285501461037b5780638d88a90e146103835761018e565b80631eaaa0451161014b578063454b060811610125578063454b0608146102d957806348cd4cb1146102f657806351eb05a6146102fe5780635312ea8e1461031b5761018e565b80631eaaa0451461025a57806323cf311814610290578063441a3e70146102b65761018e565b8063081e3eda146101935780630a087903146101ad5780631526fe27146101d157806317caf6f11461021e578063195426ec146102265780631aed655314610252575b600080fd5b61019b610472565b60408051918252519081900360200190f35b6101b5610478565b604080516001600160a01b039092168252519081900360200190f35b6101ee600480360360208110156101e757600080fd5b5035610487565b604080516001600160a01b0390951685526020850193909352838301919091526060830152519081900360800190f35b61019b6104c8565b61019b6004803603604081101561023c57600080fd5b50803590602001356001600160a01b03166104ce565b61019b610644565b61028e6004803603606081101561027057600080fd5b508035906001600160a01b036020820135169060400135151561064a565b005b61028e600480360360208110156102a657600080fd5b50356001600160a01b03166107c5565b61028e600480360360408110156102cc57600080fd5b508035906020013561083f565b61028e600480360360208110156102ef57600080fd5b5035610986565b61019b610be2565b61028e6004803603602081101561031457600080fd5b5035610be8565b61028e6004803603602081101561033157600080fd5b5035610e09565b61028e610ea4565b61028e6004803603606081101561035657600080fd5b50803590602081013590604001351515610ec7565b61028e610f98565b6101b561103a565b61019b611049565b61028e6004803603602081101561039957600080fd5b50356001600160a01b031661104e565b6101b56110bb565b61019b600480360360408110156103c757600080fd5b50803590602001356110ca565b610400600480360360408110156103ea57600080fd5b50803590602001356001600160a01b0316611130565b6040805192835260208301919091528051918290030190f35b61019b611154565b6101b561115a565b61028e6004803603604081101561043f57600080fd5b5080359060200135611169565b61028e6004803603602081101561046257600080fd5b50356001600160a01b031661126e565b60065490565b6001546001600160a01b031681565b6006818154811061049457fe5b600091825260209091206004909102018054600182015460028301546003909301546001600160a01b039092169350919084565b60085481565b600080600684815481106104de57fe5b600091825260208083208784526007825260408085206001600160a01b03898116875290845281862060049586029093016003810154815484516370a0823160e01b81523098810198909852935191985093969395939492909116926370a08231926024808301939192829003018186803b15801561055c57600080fd5b505afa158015610570573d6000803e3d6000fd5b505050506040513d602081101561058657600080fd5b505160028501549091504311801561059d57508015155b156106095760006105b28560020154436110ca565b905060006105e56008546105df88600101546105d96004548761136690919063ffffffff16565b90611366565b906113c6565b90506106046105fd846105df8464e8d4a51000611366565b8590611408565b935050505b610637836001015461063164e8d4a510006105df86886000015461136690919063ffffffff16565b90611462565b9450505050505b92915050565b60035481565b6106526114a4565b6000546001600160a01b039081169116146106a2576040805162461bcd60e51b81526020600482018190526024820152600080516020611bb0833981519152604482015290519081900360640190fd5b80156106b0576106b0610ea4565b600060095443116106c3576009546106c5565b435b6008549091506106d59085611408565b600855604080516080810182526001600160a01b0394851681526020810195865290810191825260006060820181815260068054600181018255925291517ff652222313e28459528d920b65115c16c04f3efc82aaedc97be59f3f377c0d3f600490920291820180546001600160a01b031916919096161790945593517ff652222313e28459528d920b65115c16c04f3efc82aaedc97be59f3f377c0d40840155517ff652222313e28459528d920b65115c16c04f3efc82aaedc97be59f3f377c0d418301555090517ff652222313e28459528d920b65115c16c04f3efc82aaedc97be59f3f377c0d4290910155565b6107cd6114a4565b6000546001600160a01b0390811691161461081d576040805162461bcd60e51b81526020600482018190526024820152600080516020611bb0833981519152604482015290519081900360640190fd5b600580546001600160a01b0319166001600160a01b0392909216919091179055565b60006006838154811061084e57fe5b6000918252602080832086845260078252604080852033865290925292208054600490920290920192508311156108c1576040805162461bcd60e51b81526020600482015260126024820152711dda5d1a191c985dce881b9bdd0819dbdbd960721b604482015290519081900360640190fd5b6108ca84610be8565b60006108f8826001015461063164e8d4a510006105df8760030154876000015461136690919063ffffffff16565b905061090433826114a8565b81546109109085611462565b808355600384015461092d9164e8d4a51000916105df9190611366565b60018301558254610948906001600160a01b03163386611639565b604080518581529051869133917ff279e6a1f5e320cca91135676d9cb6e44ca8a08c0b88342bcdb1144f6511b5689181900360200190a35050505050565b6005546001600160a01b03166109da576040805162461bcd60e51b815260206004820152601460248201527336b4b3b930ba329d1037379036b4b3b930ba37b960611b604482015290519081900360640190fd5b6000600682815481106109e957fe5b600091825260208083206004928302018054604080516370a0823160e01b81523095810195909552519195506001600160a01b0316939284926370a0823192602480840193829003018186803b158015610a4257600080fd5b505afa158015610a56573d6000803e3d6000fd5b505050506040513d6020811015610a6c57600080fd5b5051600554909150610a8b906001600160a01b0384811691168361168b565b6005546040805163ce5494bb60e01b81526001600160a01b0385811660048301529151600093929092169163ce5494bb9160248082019260209290919082900301818787803b158015610add57600080fd5b505af1158015610af1573d6000803e3d6000fd5b505050506040513d6020811015610b0757600080fd5b5051604080516370a0823160e01b815230600482015290519192506001600160a01b038316916370a0823191602480820192602092909190829003018186803b158015610b5357600080fd5b505afa158015610b67573d6000803e3d6000fd5b505050506040513d6020811015610b7d57600080fd5b50518214610bc1576040805162461bcd60e51b815260206004820152600c60248201526b1b5a59dc985d194e8818985960a21b604482015290519081900360640190fd5b83546001600160a01b0319166001600160a01b039190911617909255505050565b60095481565b600060068281548110610bf757fe5b9060005260206000209060040201905080600201544311610c185750610e06565b8054604080516370a0823160e01b815230600482015290516000926001600160a01b0316916370a08231916024808301926020929190829003018186803b158015610c6257600080fd5b505afa158015610c76573d6000803e3d6000fd5b505050506040513d6020811015610c8c57600080fd5b5051905080610ca2575043600290910155610e06565b6000610cb28360020154436110ca565b90506000610cd96008546105df86600101546105d96004548761136690919063ffffffff16565b6001546002549192506001600160a01b03908116916340c10f199116610d0084600a6113c6565b6040518363ffffffff1660e01b815260040180836001600160a01b0316815260200182815260200192505050600060405180830381600087803b158015610d4657600080fd5b505af1158015610d5a573d6000803e3d6000fd5b5050600154604080516340c10f1960e01b81523060048201526024810186905290516001600160a01b0390921693506340c10f19925060448082019260009290919082900301818387803b158015610db157600080fd5b505af1158015610dc5573d6000803e3d6000fd5b50505050610df3610de8846105df64e8d4a510008561136690919063ffffffff16565b600386015490611408565b6003850155505043600290920191909155505b50565b600060068281548110610e1857fe5b60009182526020808320858452600782526040808520338087529352909320805460049093029093018054909450610e5d926001600160a01b03919091169190611639565b80546040805191825251849133917fbb757047c2b5f3974fe26b7c10f732e7bce710b0952a71082702781e62ae05959181900360200190a360008082556001909101555050565b60065460005b81811015610ec357610ebb81610be8565b600101610eaa565b5050565b610ecf6114a4565b6000546001600160a01b03908116911614610f1f576040805162461bcd60e51b81526020600482018190526024820152600080516020611bb0833981519152604482015290519081900360640190fd5b8015610f2d57610f2d610ea4565b610f6a82610f6460068681548110610f4157fe5b90600052602060002090600402016001015460085461146290919063ffffffff16565b90611408565b6008819055508160068481548110610f7e57fe5b906000526020600020906004020160010181905550505050565b610fa06114a4565b6000546001600160a01b03908116911614610ff0576040805162461bcd60e51b81526020600482018190526024820152600080516020611bb0833981519152604482015290519081900360640190fd5b600080546040516001600160a01b03909116907f8be0079c531659141344cd1fd0a4f28419497f9722a3daafe3b4186f6b6457e0908390a3600080546001600160a01b0319169055565b6005546001600160a01b031681565b600a81565b6002546001600160a01b03163314611099576040805162461bcd60e51b81526020600482015260096024820152686465763a207775743f60b81b604482015290519081900360640190fd5b600280546001600160a01b0319166001600160a01b0392909216919091179055565b6000546001600160a01b031690565b600060035482116110eb576110e4600a6105d98486611462565b905061063e565b60035483106110fe576110e48284611462565b6110e46111166003548461146290919063ffffffff16565b610f64600a6105d98760035461146290919063ffffffff16565b60076020908152600092835260408084209091529082529020805460019091015482565b60045481565b6002546001600160a01b031681565b60006006838154811061117857fe5b600091825260208083208684526007825260408085203386529092529220600490910290910191506111a984610be8565b8054156111ec5760006111de826001015461063164e8d4a510006105df8760030154876000015461136690919063ffffffff16565b90506111ea33826114a8565b505b8154611203906001600160a01b031633308661179e565b805461120f9084611408565b808255600383015461122c9164e8d4a51000916105df9190611366565b6001820155604080518481529051859133917f90890809c654f11d6e72a28fa60149770a0d11ec6c92319d6ceb2bb0a4ea1a159181900360200190a350505050565b6112766114a4565b6000546001600160a01b039081169116146112c6576040805162461bcd60e51b81526020600482018190526024820152600080516020611bb0833981519152604482015290519081900360640190fd5b6001600160a01b03811661130b5760405162461bcd60e51b8152600401808060200182810382526026815260200180611b696026913960400191505060405180910390fd5b600080546040516001600160a01b03808516939216917f8be0079c531659141344cd1fd0a4f28419497f9722a3daafe3b4186f6b6457e091a3600080546001600160a01b0319166001600160a01b0392909216919091179055565b6000826113755750600061063e565b8282028284828161138257fe5b04146113bf5760405162461bcd60e51b8152600401808060200182810382526021815260200180611b8f6021913960400191505060405180910390fd5b9392505050565b60006113bf83836040518060400160405280601a81526020017f536166654d6174683a206469766973696f6e206279207a65726f0000000000008152506117fe565b6000828201838110156113bf576040805162461bcd60e51b815260206004820152601b60248201527f536166654d6174683a206164646974696f6e206f766572666c6f770000000000604482015290519081900360640190fd5b60006113bf83836040518060400160405280601e81526020017f536166654d6174683a207375627472616374696f6e206f766572666c6f7700008152506118a0565b3390565b600154604080516370a0823160e01b815230600482015290516000926001600160a01b0316916370a08231916024808301926020929190829003018186803b1580156114f357600080fd5b505afa158015611507573d6000803e3d6000fd5b505050506040513d602081101561151d57600080fd5b50519050808211156115b1576001546040805163a9059cbb60e01b81526001600160a01b038681166004830152602482018590529151919092169163a9059cbb9160448083019260209291908290030181600087803b15801561157f57600080fd5b505af1158015611593573d6000803e3d6000fd5b505050506040513d60208110156115a957600080fd5b506116349050565b6001546040805163a9059cbb60e01b81526001600160a01b038681166004830152602482018690529151919092169163a9059cbb9160448083019260209291908290030181600087803b15801561160757600080fd5b505af115801561161b573d6000803e3d6000fd5b505050506040513d602081101561163157600080fd5b50505b505050565b604080516001600160a01b038416602482015260448082018490528251808303909101815260649091019091526020810180516001600160e01b031663a9059cbb60e01b1790526116349084906118fa565b801580611711575060408051636eb1769f60e11b81523060048201526001600160a01b03848116602483015291519185169163dd62ed3e91604480820192602092909190829003018186803b1580156116e357600080fd5b505afa1580156116f7573d6000803e3d6000fd5b505050506040513d602081101561170d57600080fd5b5051155b61174c5760405162461bcd60e51b8152600401808060200182810382526036815260200180611bfa6036913960400191505060405180910390fd5b604080516001600160a01b038416602482015260448082018490528251808303909101815260649091019091526020810180516001600160e01b031663095ea7b360e01b1790526116349084906118fa565b604080516001600160a01b0380861660248301528416604482015260648082018490528251808303909101815260849091019091526020810180516001600160e01b03166323b872dd60e01b1790526117f89085906118fa565b50505050565b6000818361188a5760405162461bcd60e51b81526004018080602001828103825283818151815260200191508051906020019080838360005b8381101561184f578181015183820152602001611837565b50505050905090810190601f16801561187c5780820380516001836020036101000a031916815260200191505b509250505060405180910390fd5b50600083858161189657fe5b0495945050505050565b600081848411156118f25760405162461bcd60e51b815260206004820181815283516024840152835190928392604490910191908501908083836000831561184f578181015183820152602001611837565b505050900390565b606061194f826040518060400160405280602081526020017f5361666545524332303a206c6f772d6c6576656c2063616c6c206661696c6564815250856001600160a01b03166119ab9092919063ffffffff16565b8051909150156116345780806020019051602081101561196e57600080fd5b50516116345760405162461bcd60e51b815260040180806020018281038252602a815260200180611bd0602a913960400191505060405180910390fd5b60606119ba84846000856119c2565b949350505050565b60606119cd85611b2f565b611a1e576040805162461bcd60e51b815260206004820152601d60248201527f416464726573733a2063616c6c20746f206e6f6e2d636f6e7472616374000000604482015290519081900360640190fd5b60006060866001600160a01b031685876040518082805190602001908083835b60208310611a5d5780518252601f199092019160209182019101611a3e565b6001836020036101000a03801982511681845116808217855250505050505090500191505060006040518083038185875af1925050503d8060008114611abf576040519150601f19603f3d011682016040523d82523d6000602084013e611ac4565b606091505b50915091508115611ad85791506119ba9050565b805115611ae85780518082602001fd5b60405162461bcd60e51b815260206004820181815286516024840152865187939192839260440191908501908083836000831561184f578181015183820152602001611837565b6000813f7fc5d2460186f7233c927e7db2dcc703c0e500b653ca82273b7bfad8045d85a4708181148015906119ba57505015159291505056fe4f776e61626c653a206e6577206f776e657220697320746865207a65726f2061646472657373536166654d6174683a206d756c7469706c69636174696f6e206f766572666c6f774f776e61626c653a2063616c6c6572206973206e6f7420746865206f776e65725361666545524332303a204552433230206f7065726174696f6e20646964206e6f7420737563636565645361666545524332303a20617070726f76652066726f6d206e6f6e2d7a65726f20746f206e6f6e2d7a65726f20616c6c6f77616e6365a2646970667358221220cf47b83e58410d8069430a5087ddfaf24d787488f7ea6633ad644ffa427b1df864736f6c634300060c0033",
  "devdoc": {
    "kind": "dev",
    "methods": {
      "owner()": {
        "details": "Returns the address of the current owner."
      },
      "renounceOwnership()": {
        "details": "Leaves the contract without owner. It will not be possible to call `onlyOwner` functions anymore. Can only be called by the current owner. NOTE: Renouncing ownership will leave the contract without an owner, thereby removing any functionality that is only available to the owner."
      },
      "transferOwnership(address)": {
        "details": "Transfers ownership of the contract to a new account (`newOwner`). Can only be called by the current owner."
      }
    },
    "version": 1
  },
  "userdoc": {
    "kind": "user",
    "methods": {},
    "version": 1
  },
  "storageLayout": {
    "storage": [
      {
        "astId": 1358,
        "contract": "contracts/mocks/MockMasterChef.sol:MockMasterChef",
        "label": "_owner",
        "offset": 0,
        "slot": "0",
        "type": "t_address"
      },
      {
        "astId": 8300,
        "contract": "contracts/mocks/MockMasterChef.sol:MockMasterChef",
        "label": "sushi",
        "offset": 0,
        "slot": "1",
        "type": "t_contract(MockToken)10643"
      },
      {
        "astId": 8302,
        "contract": "contracts/mocks/MockMasterChef.sol:MockMasterChef",
        "label": "devaddr",
        "offset": 0,
        "slot": "2",
        "type": "t_address"
      },
      {
        "astId": 8304,
        "contract": "contracts/mocks/MockMasterChef.sol:MockMasterChef",
        "label": "bonusEndBlock",
        "offset": 0,
        "slot": "3",
        "type": "t_uint256"
      },
      {
        "astId": 8306,
        "contract": "contracts/mocks/MockMasterChef.sol:MockMasterChef",
        "label": "sushiPerBlock",
        "offset": 0,
        "slot": "4",
        "type": "t_uint256"
      },
      {
        "astId": 8311,
        "contract": "contracts/mocks/MockMasterChef.sol:MockMasterChef",
        "label": "migrator",
        "offset": 0,
        "slot": "5",
        "type": "t_contract(IMigratorChef)8276"
      },
      {
        "astId": 8314,
        "contract": "contracts/mocks/MockMasterChef.sol:MockMasterChef",
        "label": "poolInfo",
        "offset": 0,
        "slot": "6",
        "type": "t_array(t_struct(PoolInfo)8298_storage)dyn_storage"
      },
      {
        "astId": 8320,
        "contract": "contracts/mocks/MockMasterChef.sol:MockMasterChef",
        "label": "userInfo",
        "offset": 0,
        "slot": "7",
        "type": "t_mapping(t_uint256,t_mapping(t_address,t_struct(UserInfo)8289_storage))"
      },
      {
        "astId": 8323,
        "contract": "contracts/mocks/MockMasterChef.sol:MockMasterChef",
        "label": "totalAllocPoint",
        "offset": 0,
        "slot": "8",
        "type": "t_uint256"
      },
      {
        "astId": 8325,
        "contract": "contracts/mocks/MockMasterChef.sol:MockMasterChef",
        "label": "startBlock",
        "offset": 0,
        "slot": "9",
        "type": "t_uint256"
      }
    ],
    "types": {
      "t_address": {
        "encoding": "inplace",
        "label": "address",
        "numberOfBytes": "20"
      },
      "t_array(t_struct(PoolInfo)8298_storage)dyn_storage": {
        "base": "t_struct(PoolInfo)8298_storage",
        "encoding": "dynamic_array",
        "label": "struct MockMasterChef.PoolInfo[]",
        "numberOfBytes": "32"
      },
      "t_contract(IERC20)2240": {
        "encoding": "inplace",
        "label": "contract IERC20",
        "numberOfBytes": "20"
      },
      "t_contract(IMigratorChef)8276": {
        "encoding": "inplace",
        "label": "contract IMigratorChef",
        "numberOfBytes": "20"
      },
      "t_contract(MockToken)10643": {
        "encoding": "inplace",
        "label": "contract MockToken",
        "numberOfBytes": "20"
      },
      "t_mapping(t_address,t_struct(UserInfo)8289_storage)": {
        "encoding": "mapping",
        "key": "t_address",
        "label": "mapping(address => struct MockMasterChef.UserInfo)",
        "numberOfBytes": "32",
        "value": "t_struct(UserInfo)8289_storage"
      },
      "t_mapping(t_uint256,t_mapping(t_address,t_struct(UserInfo)8289_storage))": {
        "encoding": "mapping",
        "key": "t_uint256",
        "label": "mapping(uint256 => mapping(address => struct MockMasterChef.UserInfo))",
        "numberOfBytes": "32",
        "value": "t_mapping(t_address,t_struct(UserInfo)8289_storage)"
      },
      "t_struct(PoolInfo)8298_storage": {
        "encoding": "inplace",
        "label": "struct MockMasterChef.PoolInfo",
        "members": [
          {
            "astId": 8291,
            "contract": "contracts/mocks/MockMasterChef.sol:MockMasterChef",
            "label": "lpToken",
            "offset": 0,
            "slot": "0",
            "type": "t_contract(IERC20)2240"
          },
          {
            "astId": 8293,
            "contract": "contracts/mocks/MockMasterChef.sol:MockMasterChef",
            "label": "allocPoint",
            "offset": 0,
            "slot": "1",
            "type": "t_uint256"
          },
          {
            "astId": 8295,
            "contract": "contracts/mocks/MockMasterChef.sol:MockMasterChef",
            "label": "lastRewardBlock",
            "offset": 0,
            "slot": "2",
            "type": "t_uint256"
          },
          {
            "astId": 8297,
            "contract": "contracts/mocks/MockMasterChef.sol:MockMasterChef",
            "label": "accSushiPerShare",
            "offset": 0,
            "slot": "3",
            "type": "t_uint256"
          }
        ],
        "numberOfBytes": "128"
      },
      "t_struct(UserInfo)8289_storage": {
        "encoding": "inplace",
        "label": "struct MockMasterChef.UserInfo",
        "members": [
          {
            "astId": 8286,
            "contract": "contracts/mocks/MockMasterChef.sol:MockMasterChef",
            "label": "amount",
            "offset": 0,
            "slot": "0",
            "type": "t_uint256"
          },
          {
            "astId": 8288,
            "contract": "contracts/mocks/MockMasterChef.sol:MockMasterChef",
            "label": "rewardDebt",
            "offset": 0,
            "slot": "1",
            "type": "t_uint256"
          }
        ],
        "numberOfBytes": "64"
      },
      "t_uint256": {
        "encoding": "inplace",
        "label": "uint256",
        "numberOfBytes": "32"
      }
    }
  }
}