{
  "address": "0xAe77B14B437A629D02a860BdeE439F63982cfc26",
  "abi": [
    {
      "inputs": [
        {
          "internalType": "address",
          "name": "_voting_escrow",
          "type": "address"
        },
        {
          "internalType": "address[]",
          "name": "_rewardTokens",
          "type": "address[]"
        }
      ],
      "stateMutability": "nonpayable",
      "type": "constructor"
    },
    {
      "anonymous": false,
      "inputs": [
        {
          "indexed": false,
          "internalType": "address",
          "name": "newDepositor",
          "type": "address"
        }
      ],
      "name": "ChangedDepositor",
      "type": "event"
    },
    {
      "anonymous": false,
      "inputs": [
        {
          "indexed": false,
          "internalType": "uint256",
          "name": "time",
          "type": "uint256"
        },
        {
          "indexed": false,
          "internalType": "uint256",
          "name": "tokens",
          "type": "uint256"
        }
      ],
      "name": "CheckpointToken",
      "type": "event"
    },
    {
      "anonymous": false,
      "inputs": [
        {
          "indexed": false,
          "internalType": "uint256",
          "name": "tokenId",
          "type": "uint256"
        },
        {
          "indexed": false,
          "internalType": "uint256",
          "name": "amount",
          "type": "uint256"
        },
        {
          "indexed": false,
          "internalType": "uint256",
          "name": "claim_epoch",
          "type": "uint256"
        },
        {
          "indexed": false,
          "internalType": "uint256",
          "name": "max_epoch",
          "type": "uint256"
        }
      ],
      "name": "Claimed",
      "type": "event"
    },
    {
      "inputs": [
        {
          "internalType": "address[]",
          "name": "_tokens",
          "type": "address[]"
        }
      ],
      "name": "addRewardTokens",
      "outputs": [],
      "stateMutability": "nonpayable",
      "type": "function"
    },
    {
      "inputs": [],
      "name": "checkpoint_token",
      "outputs": [],
      "stateMutability": "nonpayable",
      "type": "function"
    },
    {
      "inputs": [],
      "name": "checkpoint_total_supply",
      "outputs": [],
      "stateMutability": "nonpayable",
      "type": "function"
    },
    {
      "inputs": [
        {
          "internalType": "uint256",
          "name": "_tokenId",
          "type": "uint256"
        }
      ],
      "name": "claim",
      "outputs": [
        {
          "internalType": "uint256[]",
          "name": "",
          "type": "uint256[]"
        }
      ],
      "stateMutability": "nonpayable",
      "type": "function"
    },
    {
      "inputs": [
        {
          "internalType": "uint256[]",
          "name": "_tokenIds",
          "type": "uint256[]"
        }
      ],
      "name": "claim_many",
      "outputs": [
        {
          "internalType": "bool",
          "name": "",
          "type": "bool"
        }
      ],
      "stateMutability": "nonpayable",
      "type": "function"
    },
    {
      "inputs": [
        {
          "internalType": "uint256",
          "name": "_tokenId",
          "type": "uint256"
        }
      ],
      "name": "claimable",
      "outputs": [
        {
          "components": [
            {
              "internalType": "address",
              "name": "token",
              "type": "address"
            },
            {
              "internalType": "uint256",
              "name": "amount",
              "type": "uint256"
            }
          ],
          "internalType": "struct ve_dist.Claimable[]",
          "name": "",
          "type": "tuple[]"
        }
      ],
      "stateMutability": "view",
      "type": "function"
    },
    {
      "inputs": [],
      "name": "depositor",
      "outputs": [
        {
          "internalType": "address",
          "name": "",
          "type": "address"
        }
      ],
      "stateMutability": "view",
      "type": "function"
    },
    {
      "inputs": [],
      "name": "getTokens",
      "outputs": [
        {
          "internalType": "address[]",
          "name": "",
          "type": "address[]"
        }
      ],
      "stateMutability": "view",
      "type": "function"
    },
    {
      "inputs": [
        {
          "internalType": "uint256",
          "name": "",
          "type": "uint256"
        }
      ],
      "name": "last_token_times",
      "outputs": [
        {
          "internalType": "uint256",
          "name": "",
          "type": "uint256"
        }
      ],
      "stateMutability": "view",
      "type": "function"
    },
    {
      "inputs": [
        {
          "internalType": "address",
          "name": "_depositor",
          "type": "address"
        }
      ],
      "name": "setDepositer",
      "outputs": [],
      "stateMutability": "nonpayable",
      "type": "function"
    },
    {
      "inputs": [
        {
          "internalType": "address",
          "name": "_depositor",
          "type": "address"
        }
      ],
      "name": "setDepositor",
      "outputs": [],
      "stateMutability": "nonpayable",
      "type": "function"
    },
    {
      "inputs": [],
      "name": "start_time",
      "outputs": [
        {
          "internalType": "uint256",
          "name": "",
          "type": "uint256"
        }
      ],
      "stateMutability": "view",
      "type": "function"
    },
    {
      "inputs": [],
      "name": "time_cursor",
      "outputs": [
        {
          "internalType": "uint256",
          "name": "",
          "type": "uint256"
        }
      ],
      "stateMutability": "view",
      "type": "function"
    },
    {
      "inputs": [
        {
          "internalType": "uint256",
          "name": "",
          "type": "uint256"
        }
      ],
      "name": "time_cursor_of",
      "outputs": [
        {
          "internalType": "uint256",
          "name": "",
          "type": "uint256"
        }
      ],
      "stateMutability": "view",
      "type": "function"
    },
    {
      "inputs": [],
      "name": "timestamp",
      "outputs": [
        {
          "internalType": "uint256",
          "name": "",
          "type": "uint256"
        }
      ],
      "stateMutability": "view",
      "type": "function"
    },
    {
      "inputs": [
        {
          "internalType": "uint256",
          "name": "",
          "type": "uint256"
        }
      ],
      "name": "token_last_balances",
      "outputs": [
        {
          "internalType": "uint256",
          "name": "",
          "type": "uint256"
        }
      ],
      "stateMutability": "view",
      "type": "function"
    },
    {
      "inputs": [
        {
          "internalType": "uint256",
          "name": "",
          "type": "uint256"
        }
      ],
      "name": "tokens",
      "outputs": [
        {
          "internalType": "address",
          "name": "",
          "type": "address"
        }
      ],
      "stateMutability": "view",
      "type": "function"
    },
    {
      "inputs": [
        {
          "internalType": "uint256",
          "name": "",
          "type": "uint256"
        },
        {
          "internalType": "uint256",
          "name": "",
          "type": "uint256"
        }
      ],
      "name": "tokens_per_day",
      "outputs": [
        {
          "internalType": "uint256",
          "name": "",
          "type": "uint256"
        }
      ],
      "stateMutability": "view",
      "type": "function"
    },
    {
      "inputs": [
        {
          "internalType": "uint256",
          "name": "",
          "type": "uint256"
        }
      ],
      "name": "user_epoch_of",
      "outputs": [
        {
          "internalType": "uint256",
          "name": "",
          "type": "uint256"
        }
      ],
      "stateMutability": "view",
      "type": "function"
    },
    {
      "inputs": [
        {
          "internalType": "uint256",
          "name": "_tokenId",
          "type": "uint256"
        },
        {
          "internalType": "uint256",
          "name": "_timestamp",
          "type": "uint256"
        }
      ],
      "name": "ve_for_at",
      "outputs": [
        {
          "internalType": "uint256",
          "name": "",
          "type": "uint256"
        }
      ],
      "stateMutability": "view",
      "type": "function"
    },
    {
      "inputs": [
        {
          "internalType": "uint256",
          "name": "",
          "type": "uint256"
        }
      ],
      "name": "ve_supply",
      "outputs": [
        {
          "internalType": "uint256",
          "name": "",
          "type": "uint256"
        }
      ],
      "stateMutability": "view",
      "type": "function"
    },
    {
      "inputs": [],
      "name": "voting_escrow",
      "outputs": [
        {
          "internalType": "address",
          "name": "",
          "type": "address"
        }
      ],
      "stateMutability": "view",
      "type": "function"
    }
  ],
  "transactionHash": "0x4b86fa6d8443f7e5e3b0a39bd9d6b04ca64a23880c9a000742d59a9363a72edf",
  "args": [
    "0xDd8277AA7Cfb00060DC1Cc41F3916c61344D13bA",
    [
      "0x075a756f26Bc7c6CC5b844b549D8Fd7Ad687E5Ba"
    ]
  ],
  "solcInputHash": "d5a862ca7330880a09716db17721d130",
  "bytecode": "0x60806040523480156200001157600080fd5b5060405162002a0738038062002a07833981016040819052620000349162000249565b60006201518062000046814262000348565b6200005291906200036b565b6000819055600181905582519091506200007a9066038d7ea4c6800690602085019062000195565b5060005b825181101562000157578160048266038d7ea4c680008110620000a557620000a56200038d565b01558251839082908110620000be57620000be6200038d565b602090810291909101015160405163095ea7b360e01b81526001600160a01b03868116600483015260001960248301529091169063095ea7b3906044016020604051808303816000875af11580156200011b573d6000803e3d6000fd5b505050506040513d601f19601f82011682018060405250810190620001419190620003a3565b50806200014e81620003ce565b9150506200007e565b505066038d7ea4c6800580546001600160a01b039093166001600160a01b031993841617905550660aa87bee538007805490911633179055620003ec565b828054828255906000526020600020908101928215620001ed579160200282015b82811115620001ed57825182546001600160a01b0319166001600160a01b03909116178255602090920191600190910190620001b6565b50620001fb929150620001ff565b5090565b5b80821115620001fb576000815560010162000200565b80516001600160a01b03811681146200022e57600080fd5b919050565b634e487b7160e01b600052604160045260246000fd5b600080604083850312156200025d57600080fd5b620002688362000216565b602084810151919350906001600160401b03808211156200028857600080fd5b818601915086601f8301126200029d57600080fd5b815181811115620002b257620002b262000233565b8060051b604051601f19603f83011681018181108582111715620002da57620002da62000233565b604052918252848201925083810185019189831115620002f957600080fd5b938501935b828510156200032257620003128562000216565b84529385019392850192620002fe565b8096505050505050509250929050565b634e487b7160e01b600052601160045260246000fd5b6000826200036657634e487b7160e01b600052601260045260246000fd5b500490565b600081600019048311821515161562000388576200038862000332565b500290565b634e487b7160e01b600052603260045260246000fd5b600060208284031215620003b657600080fd5b81518015158114620003c757600080fd5b9392505050565b6000600019821415620003e557620003e562000332565b5060010190565b61260b80620003fc6000396000f3fe608060405234801561001057600080fd5b50600436106101425760003560e01c80639a03be51116100b8578063c62884431161007c578063c6288443146102c6578063c7c4ff46146102d9578063d1d58b25146102f2578063d4dafba814610312578063dfe0503114610325578063f2c098b71461033e57600080fd5b80639a03be511461027b578063a1f878091461028e578063aa6ca808146102a1578063b21ed502146102b6578063b80777ea146102be57600080fd5b80633fd83e9e1161010a5780633fd83e9e146101db578063486d25fe1461020c5780634f64b2be1461022c5780636880988914610257578063811a40fe1461026a578063834ee4171461027257600080fd5b806306d2b3f214610147578063127dcbd31461015c57806316aea5c0146101785780631f1db04314610198578063379607f5146101bb575b600080fd5b61015a610155366004612036565b610351565b005b61016560015481565b6040519081526020015b60405180910390f35b610165610186366004612053565b60036020526000908152604090205481565b6101ab6101a63660046120d7565b6103c8565b604051901515815260200161016f565b6101ce6101c9366004612053565b6105d3565b60405161016f9190612162565b6101656101e936600461219a565b66038d7ea4c6800460209081526000928352604080842090915290825290205481565b61016561021a366004612053565b60026020526000908152604090205481565b61023f61023a366004612053565b61062d565b6040516001600160a01b03909116815260200161016f565b61016561026536600461219a565b61065d565b61015a6107a0565b61016560005481565b610165610289366004612053565b6107d1565b61015a61029c3660046121bc565b6107f4565b6102a961086b565b60405161016f919061224b565b61015a6108d3565b6101656108dd565b6101656102d4366004612053565b6108fc565b660aa87bee5380075461023f906001600160a01b031681565b610305610300366004612053565b610912565b60405161016f919061228c565b610165610320366004612053565b61095f565b66038d7ea4c680055461023f906001600160a01b031681565b61015a61034c366004612036565b61097b565b660aa87bee538007546001600160a01b0316331461036e57600080fd5b660aa87bee53800780546001600160a01b0319166001600160a01b0383169081179091556040519081527fcfc5121124d49ef377358a49cb8fc570101c8555d41f70f3a75c5ea4c2a9cf099060200160405180910390a150565b600060015442106103db576103db6109c0565b6004546000620151806103ee8184612310565b6103f89190612332565b9050620151806104088183612310565b6104129190612332565b66038d7ea4c680055466038d7ea4c68006549192506001600160a01b03169060009067ffffffffffffffff81111561044c5761044c61206c565b604051908082528060200260200182016040528015610475578160200160208202803683370190505b50905060005b8651811015610537576000878281518110610498576104986122e4565b6020026020010151905080600014156104b15750610537565b60006104be828688610b69565b905060005b8151811015610521578181815181106104de576104de6122e4565b60200260200101518582815181106104f8576104f86122e4565b6020026020010181815161050c9190612351565b9052508061051981612369565b9150506104c3565b505050808061052f90612369565b91505061047b565b5060005b81518110156105c657818181518110610556576105566122e4565b60200260200101516000146105b457818181518110610577576105776122e4565b602002602001015166038d7ea4c680078266038d7ea4c68000811061059e5761059e6122e4565b0160008282546105ae9190612384565b90915550505b806105be81612369565b91505061053b565b5060019695505050505050565b606060015442106105e6576105e66109c0565b600454620151806105f78183612310565b6106019190612332565b66038d7ea4c68005549091506000906106259085906001600160a01b031684610b69565b949350505050565b66038d7ea4c68006818154811061064357600080fd5b6000918252602090912001546001600160a01b0316905081565b66038d7ea4c680055460405163391044d760e21b8152600481018490526000916001600160a01b0316908290829063e441135c90602401602060405180830381865afa1580156106b1573d6000803e3d6000fd5b505050506040513d601f19601f820116820180604052508101906106d5919061239b565b905060006106e58387878561122d565b6040516309bb79ed60e11b815260048101889052602481018290529091506000906001600160a01b03851690631376f3da90604401608060405180830381865afa158015610737573d6000803e3d6000fd5b505050506040513d601f19601f8201168201806040525081019061075b91906123cb565b90506107958160400151876107709190612384565b826020015161077f919061243d565b825161078b91906124db565b600f0b6000611325565b979650505050505050565b60005b66038d7ea4c68006548110156107ce576107bc8161133c565b806107c681612369565b9150506107a3565b50565b66038d7ea4c680078166038d7ea4c6800081106107ed57600080fd5b0154905081565b60005b81518110156108675766038d7ea4c6800682828151811061081a5761081a6122e4565b60209081029190910181015182546001810184556000938452919092200180546001600160a01b0319166001600160a01b039092169190911790558061085f81612369565b9150506107f7565b5050565b606066038d7ea4c680068054806020026020016040519081016040528092919081815260200182805480156108c957602002820191906000526020600020905b81546001600160a01b031681526001909101906020018083116108ab575b5050505050905090565b6108db6109c0565b565b6000620151806108ed8142612310565b6108f79190612332565b905090565b60048166038d7ea4c6800081106107ed57600080fd5b6004546060906000620151806109288184612310565b6109329190612332565b66038d7ea4c68005549091506000906109569086906001600160a01b03168461163e565b95945050505050565b66071afd498d00078166038d7ea4c6800081106107ed57600080fd5b660aa87bee538007546001600160a01b0316331461099857600080fd5b660aa87bee53800780546001600160a01b0319166001600160a01b0392909216919091179055565b66038d7ea4c68005546001546001600160a01b03909116906000620151806109e88142612310565b6109f29190612332565b9050826001600160a01b031663c2c4c5c16040518163ffffffff1660e01b8152600401600060405180830381600087803b158015610a2f57600080fd5b505af1158015610a43573d6000803e3d6000fd5b5050505060005b6014811015610b615781831115610a6057610b61565b6000610a6c8585611e14565b60405163d1febfb960e01b8152600481018290529091506000906001600160a01b0387169063d1febfb990602401608060405180830381865afa158015610ab7573d6000803e3d6000fd5b505050506040513d601f19601f82011682018060405250810190610adb91906123cb565b905060008160400151861115610afd576040820151610afa9087612384565b90505b610b1c818360200151610b10919061243d565b835161078b91906124db565b66071afd498d00078766038d7ea4c680008110610b3b57610b3b6122e4565b0155505050610b4d6201518084612351565b925080610b5981612369565b915050610a4a565b505060015550565b606060008066038d7ea4c680068054905067ffffffffffffffff811115610b9257610b9261206c565b604051908082528060200260200182016040528015610bbb578160200160208202803683370190505b5060405163391044d760e21b8152600481018890529091506000906001600160a01b0387169063e441135c90602401602060405180830381865afa158015610c07573d6000803e3d6000fd5b505050506040513d601f19601f82011682018060405250810190610c2b919061239b565b60005490915081610c425782945050505050611226565b60008881526002602052604090205480610c6957610c62888a848661122d565b9450610c7b565b60008981526003602052604090205494505b84610c8557600194505b6040516309bb79ed60e11b8152600481018a9052602481018690526000906001600160a01b038a1690631376f3da90604401608060405180830381865afa158015610cd4573d6000803e3d6000fd5b505050506040513d601f19601f82011682018060405250810190610cf891906123cb565b905081610d3a5762015180806001620151808460400151610d199190612351565b610d239190612384565b610d2d9190612310565b610d379190612332565b91505b878210610d4f57849650505050505050611226565b82821015610d5b578291505b6040805160808101825260008082526020820181905291810182905260608101829052905b6032811015610f8e57898410610d9557610f8e565b82604001518410158015610da95750858811155b15610e6f57610db9600189612351565b975082915085881115610df85760405180608001604052806000600f0b81526020016000600f0b81526020016000815260200160008152509250610f7c565b6040516309bb79ed60e11b8152600481018d9052602481018990526001600160a01b038c1690631376f3da90604401608060405180830381865afa158015610e44573d6000803e3d6000fd5b505050506040513d601f19601f82011682018060405250810190610e6891906123cb565b9250610f7c565b6000826040015185610e819190612384565b90506000610ea4846020015183610e98919061243d565b855161078b91906124db565b905080158015610eb35750878a115b15610ebf575050610f8e565b8015610f6a5760005b66038d7ea4c6800654811015610f685766071afd498d00078766038d7ea4c680008110610ef757610ef76122e4565b0154600088815266038d7ea4c6800460209081526040808320858452909152902054610f239084612332565b610f2d9190612310565b8a8281518110610f3f57610f3f6122e4565b60200260200101818151610f539190612351565b90525080610f6081612369565b915050610ec8565b505b610f776201518087612351565b955050505b80610f8681612369565b915050610d80565b50610fa385610f9e60018a612384565b611f6d565b60008c8152600360209081526040808320849055600290915280822086905566038d7ea4c680055490516331a9108f60e11b8152600481018f905292995090916001600160a01b0390911690636352211e90602401602060405180830381865afa158015611015573d6000803e3d6000fd5b505050506040513d601f19601f82011682018060405250810190611039919061252b565b905060005b66038d7ea4c680065481101561121a57878181518110611060576110606122e4565b602002602001015160001461120857600066038d7ea4c68006828154811061108a5761108a6122e4565b9060005260206000200160009054906101000a90046001600160a01b03169050806001600160a01b031663a9059cbb848b85815181106110cc576110cc6122e4565b60200260200101516040518363ffffffff1660e01b81526004016111059291906001600160a01b03929092168252602082015260400190565b6020604051808303816000875af1158015611124573d6000803e3d6000fd5b505050506040513d601f19601f820116820180604052508101906111489190612548565b6111545761115461256a565b888281518110611166576111666122e4565b602002602001015166038d7ea4c680078366038d7ea4c68000811061118d5761118d6122e4565b01600082825461119d9190612384565b925050819055507fcae2990aa9af8eb1c64713b7eddb3a80bf18e49a94a13fe0d0002b5d61d58f008e8a84815181106111d8576111d86122e4565b602090810291909101810151604080519384529183015281018c9052606081018a905260800160405180910390a1505b8061121281612369565b91505061103e565b50959750505050505050505b9392505050565b60008082815b60808110156113195781831061124857611319565b600060026112568486612351565b611261906002612351565b61126b9190612310565b6040516309bb79ed60e11b8152600481018a9052602481018290529091506000906001600160a01b038b1690631376f3da90604401608060405180830381865afa1580156112bd573d6000803e3d6000fd5b505050506040513d601f19601f820116820180604052508101906112e191906123cb565b9050878160400151116112f657819450611304565b611301600183612384565b93505b5050808061131190612369565b915050611233565b50909695505050505050565b6000818310156113355781611226565b5090919050565b600066038d7ea4c680068281548110611357576113576122e4565b6000918252602090912001546040516370a0823160e01b81523060048201526001600160a01b03909116906370a0823190602401602060405180830381865afa1580156113a8573d6000803e3d6000fd5b505050506040513d601f19601f820116820180604052508101906113cc919061239b565b9050600066038d7ea4c680078366038d7ea4c6800081106113ef576113ef6122e4565b01546113fb9083612384565b90508166038d7ea4c680078466038d7ea4c68000811061141d5761141d6122e4565b0155600060048466038d7ea4c68000811061143a5761143a6122e4565b01549050600061144a8242612384565b90504260048666038d7ea4c680008110611466576114666122e4565b01556000620151806114788185612310565b6114829190612332565b90506000805b60148110156115fb5761149e6201518084612351565b91508142101561154257831580156114b557508442145b156114f457600083815266038d7ea4c68004602090815260408083208b8452909152812080548892906114e9908490612351565b909155506115fb9050565b836114ff8642612384565b6115099088612332565b6115139190612310565b600084815266038d7ea4c68004602090815260408083208c8452909152812080549091906114e9908490612351565b8315801561154f57508482145b1561158e57600083815266038d7ea4c68004602090815260408083208b845290915281208054889290611583908490612351565b909155506115e29050565b836115998684612384565b6115a39088612332565b6115ad9190612310565b600084815266038d7ea4c68004602090815260408083208c8452909152812080549091906115dc908490612351565b90915550505b81945081925080806115f390612369565b915050611488565b5060408051428152602081018790527fce749457b74e10f393f2c6b1ce4261b78791376db5a3f501477a809f03f500d6910160405180910390a150505050505050565b606060008066038d7ea4c680068054905067ffffffffffffffff8111156116675761166761206c565b6040519080825280602002602001820160405280156116ac57816020015b60408051808201909152600080825260208201528152602001906001900390816116855790505b5060405163391044d760e21b8152600481018890529091506000906001600160a01b0387169063e441135c90602401602060405180830381865afa1580156116f8573d6000803e3d6000fd5b505050506040513d601f19601f8201168201806040525081019061171c919061239b565b600054909150816117335782945050505050611226565b6000888152600260205260409020548061175a57611753888a848661122d565b945061176c565b60008981526003602052604090205494505b8461177657600194505b6040516309bb79ed60e11b8152600481018a9052602481018690526000906001600160a01b038a1690631376f3da90604401608060405180830381865afa1580156117c5573d6000803e3d6000fd5b505050506040513d601f19601f820116820180604052508101906117e991906123cb565b90506118176040518060400160405280600b81526020016a3230bcafb1bab939b7b91d60a91b815250611f7c565b61182082611fbf565b611852604051806040016040528060118152602001702fb630b9ba2fba37b5b2b72fba34b6b29d60791b815250611f7c565b61185b88611fbf565b8161189b576201518080600162015180846040015161187a9190612351565b6118849190612384565b61188e9190612310565b6118989190612332565b91505b6118d96040518060400160405280601781526020017f6461795f637572736f7220616674657220636865636b3a000000000000000000815250611f7c565b6118e282611fbf565b8782106118f757849650505050505050611226565b82821015611903578291505b6040805160808101825260008082526020820181905291810182905260608101829052905b6032811015611e045789841061193d57611e04565b61196c6040518060400160405280600e81526020016d2d2d2d2d2d2d2d2d2d2d2d2d2d2d60901b815250611f7c565b61197581611fbf565b61199c6040518060400160405280600681526020016503ab9b2b91d160d51b815250611f7c565b6119a588611fbf565b6119cb60405180604001604052806005815260200164036b0bc1d160dd1b815250611f7c565b6119d486611fbf565b611a036040518060400160405280600e81526020016d2d2d2d2d2d2d2d2d2d2d2d2d2d2d60901b815250611f7c565b82604001518410158015611a175750858811155b15611add57611a27600189612351565b975082915085881115611a665760405180608001604052806000600f0b81526020016000600f0b81526020016000815260200160008152509250611df2565b6040516309bb79ed60e11b8152600481018d9052602481018990526001600160a01b038c1690631376f3da90604401608060405180830381865afa158015611ab2573d6000803e3d6000fd5b505050506040513d601f19601f82011682018060405250810190611ad691906123cb565b9250611df2565b6000826040015185611aef9190612384565b9050611b1b6040518060400160405280600981526020016830b33a32b910323a1d60b91b815250611f7c565b611b2d816001600160801b0316611fbf565b611b596040518060400160405280600b81526020016a3230bcafb1bab939b7b91d60a91b815250611f7c565b611b6285611fbf565b611b96604051806040016040528060138152602001726f6c645f757365725f706f696e742e6269617360681b815250611f7c565b8251611baa906001600160801b0316611fbf565b611bdc604051806040016040528060118152602001706f6c645f757365725f706f696e742e747360781b815250611f7c565b611be98360400151611fbf565b611c1e604051806040016040528060148152602001736f6c645f757365725f706f696e742e736c6f706560601b815250611f7c565b611c3483602001516001600160801b0316611fbf565b6000611c49846020015183610e98919061243d565b9050611c776040518060400160405280600b81526020016a3130b630b731b2afb7b31d60a91b815250611f7c565b611c8081611fbf565b80158015611c8d5750878a115b15611c99575050611e04565b8015611de05760005b66038d7ea4c6800654811015611dde57611ce06040518060400160405280600d81526020016c03a37b5b2b71034b73232bc1d1609d1b815250611f7c565b611ce981611fbf565b66038d7ea4c680068181548110611d0257611d026122e4565b9060005260206000200160009054906101000a90046001600160a01b03168a8281518110611d3257611d326122e4565b60209081029190910101516001600160a01b03909116905266071afd498d00078766038d7ea4c680008110611d6957611d696122e4565b0154600088815266038d7ea4c6800460209081526040808320858452909152902054611d959084612332565b611d9f9190612310565b8a8281518110611db157611db16122e4565b6020026020010151602001818151611dc99190612351565b90525080611dd681612369565b915050611ca2565b505b611ded6201518087612351565b955050505b80611dfc81612369565b915050611928565b50949a9950505050505050505050565b600080600090506000846001600160a01b031663900cf0cf6040518163ffffffff1660e01b8152600401602060405180830381865afa158015611e5b573d6000803e3d6000fd5b505050506040513d601f19601f82011682018060405250810190611e7f919061239b565b905060005b6080811015611f6357818310611e9957611f63565b60006002611ea78486612351565b611eb2906002612351565b611ebc9190612310565b60405163d1febfb960e01b8152600481018290529091506000906001600160a01b0389169063d1febfb990602401608060405180830381865afa158015611f07573d6000803e3d6000fd5b505050506040513d601f19601f82011682018060405250810190611f2b91906123cb565b905086816040015111611f4057819450611f4e565b611f4b600183612384565b93505b50508080611f5b90612369565b915050611e84565b5090949350505050565b60008183106113355781611226565b6107ce81604051602401611f909190612580565b60408051601f198184030181529190526020810180516001600160e01b031663104c13eb60e21b179052612000565b6107ce81604051602401611fd591815260200190565b60408051601f198184030181529190526020810180516001600160e01b031663f5b1bba960e01b1790525b80516a636f6e736f6c652e6c6f67602083016000808483855afa5050505050565b6001600160a01b03811681146107ce57600080fd5b60006020828403121561204857600080fd5b813561122681612021565b60006020828403121561206557600080fd5b5035919050565b634e487b7160e01b600052604160045260246000fd5b604051601f8201601f1916810167ffffffffffffffff811182821017156120ab576120ab61206c565b604052919050565b600067ffffffffffffffff8211156120cd576120cd61206c565b5060051b60200190565b600060208083850312156120ea57600080fd5b823567ffffffffffffffff81111561210157600080fd5b8301601f8101851361211257600080fd5b8035612125612120826120b3565b612082565b81815260059190911b8201830190838101908783111561214457600080fd5b928401925b8284101561079557833582529284019290840190612149565b6020808252825182820181905260009190848201906040850190845b818110156113195783518352928401929184019160010161217e565b600080604083850312156121ad57600080fd5b50508035926020909101359150565b600060208083850312156121cf57600080fd5b823567ffffffffffffffff8111156121e657600080fd5b8301601f810185136121f757600080fd5b8035612205612120826120b3565b81815260059190911b8201830190838101908783111561222457600080fd5b928401925b8284101561079557833561223c81612021565b82529284019290840190612229565b6020808252825182820181905260009190848201906040850190845b818110156113195783516001600160a01b031683529284019291840191600101612267565b602080825282518282018190526000919060409081850190868401855b828110156122d757815180516001600160a01b031685528601518685015292840192908501906001016122a9565b5091979650505050505050565b634e487b7160e01b600052603260045260246000fd5b634e487b7160e01b600052601160045260246000fd5b60008261232d57634e487b7160e01b600052601260045260246000fd5b500490565b600081600019048311821515161561234c5761234c6122fa565b500290565b60008219821115612364576123646122fa565b500190565b600060001982141561237d5761237d6122fa565b5060010190565b600082821015612396576123966122fa565b500390565b6000602082840312156123ad57600080fd5b5051919050565b8051600f81900b81146123c657600080fd5b919050565b6000608082840312156123dd57600080fd5b6040516080810181811067ffffffffffffffff821117156124005761240061206c565b60405261240c836123b4565b815261241a602084016123b4565b602082015260408301516040820152606083015160608201528091505092915050565b600081600f0b83600f0b60016001607f1b0360008213600084138383048511828216161561246d5761246d6122fa565b6f7fffffffffffffffffffffffffffffff196000851282811687830587121615612499576124996122fa565b600087129250858205871284841616156124b5576124b56122fa565b858505871281841616156124cb576124cb6122fa565b5050509290910295945050505050565b600081600f0b83600f0b600081128160016001607f1b031901831281151615612506576125066122fa565b8160016001607f1b03018313811615612521576125216122fa565b5090039392505050565b60006020828403121561253d57600080fd5b815161122681612021565b60006020828403121561255a57600080fd5b8151801515811461122657600080fd5b634e487b7160e01b600052600160045260246000fd5b600060208083528351808285015260005b818110156125ad57858101830151858201604001528201612591565b818111156125bf576000604083870101525b50601f01601f191692909201604001939250505056fea2646970667358221220d9c109ef9765944660bcc03878fb6f178d1053f6376f1421d609f40bc87d438564736f6c634300080b0033",
  "devdoc": {
    "kind": "dev",
    "methods": {},
    "version": 1
  },
  "userdoc": {
    "kind": "user",
    "methods": {},
    "version": 1
  },
  "storageLayout": {
    "storage": [
      {
        "astId": 177,
        "contract": "contracts/governance/ve_dist.sol:ve_dist",
        "label": "start_time",
        "offset": 0,
        "slot": "0",
        "type": "t_uint256"
      },
      {
        "astId": 179,
        "contract": "contracts/governance/ve_dist.sol:ve_dist",
        "label": "time_cursor",
        "offset": 0,
        "slot": "1",
        "type": "t_uint256"
      },
      {
        "astId": 183,
        "contract": "contracts/governance/ve_dist.sol:ve_dist",
        "label": "time_cursor_of",
        "offset": 0,
        "slot": "2",
        "type": "t_mapping(t_uint256,t_uint256)"
      },
      {
        "astId": 187,
        "contract": "contracts/governance/ve_dist.sol:ve_dist",
        "label": "user_epoch_of",
        "offset": 0,
        "slot": "3",
        "type": "t_mapping(t_uint256,t_uint256)"
      },
      {
        "astId": 191,
        "contract": "contracts/governance/ve_dist.sol:ve_dist",
        "label": "last_token_times",
        "offset": 0,
        "slot": "4",
        "type": "t_array(t_uint256)1000000000000000_storage"
      },
      {
        "astId": 197,
        "contract": "contracts/governance/ve_dist.sol:ve_dist",
        "label": "tokens_per_day",
        "offset": 0,
        "slot": "1000000000000004",
        "type": "t_mapping(t_uint256,t_mapping(t_uint256,t_uint256))"
      },
      {
        "astId": 199,
        "contract": "contracts/governance/ve_dist.sol:ve_dist",
        "label": "voting_escrow",
        "offset": 0,
        "slot": "1000000000000005",
        "type": "t_address"
      },
      {
        "astId": 202,
        "contract": "contracts/governance/ve_dist.sol:ve_dist",
        "label": "tokens",
        "offset": 0,
        "slot": "1000000000000006",
        "type": "t_array(t_address)dyn_storage"
      },
      {
        "astId": 206,
        "contract": "contracts/governance/ve_dist.sol:ve_dist",
        "label": "token_last_balances",
        "offset": 0,
        "slot": "1000000000000007",
        "type": "t_array(t_uint256)1000000000000000_storage"
      },
      {
        "astId": 210,
        "contract": "contracts/governance/ve_dist.sol:ve_dist",
        "label": "ve_supply",
        "offset": 0,
        "slot": "2000000000000007",
        "type": "t_array(t_uint256)1000000000000000_storage"
      },
      {
        "astId": 212,
        "contract": "contracts/governance/ve_dist.sol:ve_dist",
        "label": "depositor",
        "offset": 0,
        "slot": "3000000000000007",
        "type": "t_address"
      }
    ],
    "types": {
      "t_address": {
        "encoding": "inplace",
        "label": "address",
        "numberOfBytes": "20"
      },
      "t_array(t_address)dyn_storage": {
        "base": "t_address",
        "encoding": "dynamic_array",
        "label": "address[]",
        "numberOfBytes": "32"
      },
      "t_array(t_uint256)1000000000000000_storage": {
        "base": "t_uint256",
        "encoding": "inplace",
        "label": "uint256[1000000000000000]",
        "numberOfBytes": "32000000000000000"
      },
      "t_mapping(t_uint256,t_mapping(t_uint256,t_uint256))": {
        "encoding": "mapping",
        "key": "t_uint256",
        "label": "mapping(uint256 => mapping(uint256 => uint256))",
        "numberOfBytes": "32",
        "value": "t_mapping(t_uint256,t_uint256)"
      },
      "t_mapping(t_uint256,t_uint256)": {
        "encoding": "mapping",
        "key": "t_uint256",
        "label": "mapping(uint256 => uint256)",
        "numberOfBytes": "32",
        "value": "t_uint256"
      },
      "t_uint256": {
        "encoding": "inplace",
        "label": "uint256",
        "numberOfBytes": "32"
      }
    }
  }
}